:020000040800F2
:10000000E80C00202D020008E51D0008A31B0008D5
:10001000E11D00082907000859260008000000001B
:100020000000000000000000000000000D2100089A
:100030002D070008000000000B21000865210008C2
:10004000470200084702000847020008470200086C
:10005000470200084702000847020008470200085C
:10006000470200084702000847020008470200084C
:10007000470200084702000847020008470200083C
:10008000470200084702000847020008470200082C
:10009000470200084702000847020008470200081C
:1000A000470200084702000847020008470200080C
:1000B0004702000847020008C5210008470200085F
:1000C00047020008470200084702000847020008EC
:1000D00047020008192600084702000847020008E6
:1000E00047020008470200084702000847020008CC
:1000F00047020008470200084702000847020008BC
:1001000047020008470200084702000847020008AB
:10011000470200084702000847020008470200089B
:10012000470200084702000847020008470200088B
:1001300000F002F800F06BF80AA090E8000C82448E
:100140008344AAF10107DA4501D100F060F8AFF26B
:10015000090EBAE80F0013F0010F18BFFB1A43F0A5
:1001600001031847E0540000005500000A444FF016
:10017000000C10F8013B13F0070408BF10F8014B06
:100180001D1108BF10F8015B641E05D010F8016B4B
:10019000641E01F8016BF9D113F0080F1EBF10F8AF
:1001A000014BAD1C0C1B09D16D1E58BF01F801CBD2
:1001B000FAD505E014F8016B01F8016B6D1EF9D555
:1001C0009142D6D37047000000230024002500266A
:1001D000103A28BF78C1FBD8520728BF30C148BFAA
:1001E0000B607047642900F09F80752900F09C80A7
:1001F000782900F0D580632900F02982732900F066
:100200002E82002070471FB51FBD10B510BD00F035
:1002100059FA1146FFF7F7FF02F09EFA00F077FA5D
:1002200003B4FFF7F2FF03BC02F04BFA0948804722
:1002300009480047FEE7FEE7FEE7FEE7FEE7FEE7C8
:10024000FEE7FEE7FEE7FEE704480549054A064BE0
:10025000704700006D21000831010008E806002009
:10026000E80C0020E8080020E808002070470000A3
:100270000FB4044910B503AA029800F0F5F910BCB8
:100280005DF814FB0C00002070B504468569006819
:10029000C10601D5302600E02026C00707D070BD7A
:1002A000D4E9012130469047206A401C20626D1E2F
:1002B000F6D570BD70B5044685690078C00707D1D2
:1002C00070BDD4E9012120209047206A401C2062A3
:1002D0006D1EF6D570BD70B50C460546012A05D0D9
:1002E0002878800600D5EA69002302E0012305E0B2
:1002F0005B1C934202D2E05C0028F9D1A869E618A1
:10030000C01AA861286A184428622846FFF7BCFF73
:1003100004E0D5E9012114F8010B9047B442F8D369
:100320002846FFF7C7FF70BD2DE9F04106460024BF
:1003300010687529314616A510D0AFF3008000284B
:1003400002DA404213A507E031688A0701D512A5F9
:1003500002E0490704D511A5012401E0AFF30080B4
:1003600000210A2206F1240709E0B0FBF2FCB0FBF1
:10037000F2F302FB1C00303078541846491C002868
:10038000F3D123462A463046BDE8F04100F0FCB8E0
:10039000000000002D0000002B00000020000000E5
:1003A00070B504460D4621461068AFF300802188E1
:1003B000090502D50F4A7A4402E00E4A7A440E3209
:1003C000002104F1240305E000F00F060009965D0A
:1003D0005E54491C0028F7D120780023000704D57B
:1003E000702D02D009B1022311322046BDE87040C1
:1003F00000F0CAB8BA5100002DE9F05F8946044602
:100400004FF0000ADFF874B1FB44C0F820A020468A
:10041000E1688847002874D0252806D0D4E9012156
:100420009047206A401C2062F1E700265F46204684
:10043000E16888472028054607DB312D05D2781969
:1004400010F8200C08B10643F1E7B00701D526F0FB
:100450000406C4F81CA00027C4F818A02A2D09D04F
:10046000284602F027F938B304EB8708303DC8F876
:10047000185019E059F8041B204604EB87029161DB
:10048000E1688847012F054618D1E069002820DA85
:1004900026F020061DE0D8F8180000EB800005EBE0
:1004A00040003038C8F818002046E1688847054603
:1004B00002F000F90028EED1012F0AD02E2D08D12C
:1004C0002046E16888477F1C0546022F46F020063B
:1004D000C4DBA069002803DA404246F00106A061AF
:1004E000F00701D026F010066C2D0BD0682D09D036
:1004F0004C2D39D06A2D35D0742D35D07A2D33D08E
:1005000016E038E0E1682F4620468847B8420546A5
:1005100009D16C2F26D04FF48060E1680643204655
:100520008847054604E06C2F1AD04FF480700643CC
:100530000DB3A5F14100192802D8203546F4006614
:100540004A462946204626604E46FFF74BFE80B1BC
:1005500001280BD0F61D26F0070000F1080956E728
:100560004020E4E78020D8E70020D6E706F1040920
:100570004DE7284652E7206ABDE8F09F9051000001
:1005800070477047704770472DE9F0470D46994610
:100590009246044600F124080168880604D5E06903
:1005A00021F01001216000E00120A84201DD471B7D
:1005B00000E00027A1697A1902EB0900081AA0617E
:1005C0002078C00602D42046FFF75EFE002608E031
:1005D000D4E901211AF806009047206A401C761CD5
:1005E00020624E45F4DB2078C0060AD52046FFF78E
:1005F0004BFE06E0D4E9012130209047206A401CE0
:100600002062381EA7F10107F4DC07E0D4E90121DC
:1006100018F805009047206A401C2062281EA5F1AA
:100620000105F3DC2046FFF745FE2078000602D5E1
:100630000220BDE8F0870120FBE710B5436913B144
:10064000AFF3008001E0FFF746FE012010BD1278F5
:1006500000F124010A7000224A700122EDE71168BE
:100660004FF0FF32E9E70000074B70B50D467B44C1
:1006700000F011F80446284600F020F810B14FF0C1
:10068000FF3070BD204670BDCB20000001694A1CC0
:1006900002610878704700B58FB0CDE901310021C3
:1006A000059105497944CDE9031011466846FFF7E5
:1006B000A3FE0FB000BD0000E5FFFFFF007B00F0D0
:1006C00080007047754600F02BF8AE46050069467D
:1006D000534620F00700854618B020B5FFF7B4FD5B
:1006E000BDE820404FF000064FF000074FF0000833
:1006F0004FF0000B21F00701AC46ACE8C009ACE8B4
:10070000C009ACE8C009ACE8C0098D46704710B517
:100710000446AFF300802046BDE81040FFF780BDDF
:10072000004870478806002000BFFEE7704731B5DB
:10073000002400F0AFF9044600BF00F0ABF9001B45
:1007400000998842F9D338BD2DE9F84702460024C4
:10075000002000258446002700237BE14FF001089C
:1007600008FA03F4D1F8008008EA0400A0427DD121
:10077000DFF8ECA2D1F80480A8EB0A09D0453AD002
:1007800014DCB8F1030F50D009DCB8F1000F31D000
:10079000B8F1010F1CD0B8F1020F49D120E0B8F137
:1007A000110F18D0B8F1120F42D11EE0B9F5881F11
:1007B00025D006DCB9F5803F20D0B9F5801F37D1B0
:1007C0001AE0B9F5001F18D0B9F5041F30D117E0B1
:1007D000D1F80CC02DE0D1F80C8008F1040C28E011
:1007E000D1F80C8008F1080C23E0D1F80C8008F156
:1007F0000C0C1EE000BF00BF00BF00BF00BF00BF69
:10080000D1F80880B8F1000F02D14FF0040C0BE0D2
:10081000D1F80880B8F1010F03D14FF0080C146132
:1008200002E04FF0080C546103E04FF0000C00E0D0
:1008300000BF00BFFF2801D8904601E002F1040884
:100840004646FF2802D84FEA830803E0A3F10808D0
:100850004FEA88084746D6F800804FF00F0909FA9A
:1008600007F928EA09080CFA07F900E07AE048EAF3
:100870000908C6F80080D1F8048008F08058B8F163
:10088000805F6FD100BFDFF8DC81D8F8188048F0B6
:100890000108DFF8D091C9F81880C846D8F8188048
:1008A00008F00108CDF8008000BF00BF4FEAB9385A
:1008B0004FEA930958F829504FEA83784FEA18799C
:1008C0004FF00F0808FA09F825EA0805DFF89881C3
:1008D000424502D14FF0000824E0DFF89081424504
:1008E00002D14FF001081DE0DFF88481424502D1BA
:1008F0004FF0020816E0DFF87C81424502D14FF04C
:1009000003080FE0DFF87081424502D14FF0040880
:1009100008E0DFF86881424502D14FF0050801E0A8
:100920004FF006084FEA83794FEA197908FA09F877
:1009300048EA0505DFF848814FEA930948F829504D
:10094000D1F8048008F48038B8F5803F0BD1DFF887
:100950003481D8F8008048EA0008DFF82891C9F807
:1009600000800AE075E0DFF81C81D8F8008028EAF2
:100970000008DFF81091C9F80080D1F8048008F46D
:100980000038B8F5003F0ED1DFF8F88008F1040810
:10099000D8F8008048EA0008DFF8E89009F1040977
:1009A000C9F800800DE0DFF8DC8008F10408D8F811
:1009B000008028EA0008DFF8CC9009F10409C9F8A2
:1009C0000080D1F8048008F48018B8F5801F0ED19B
:1009D000DFF8B08008F10808D8F8008048EA00087D
:1009E000DFF8A09009F10809C9F800800DE0DFF8F0
:1009F000948008F10808D8F8008028EA0008DFF899
:100A0000849009F10809C9F80080D1F8048008F43D
:100A10000018B8F5001F0ED1DFF8688008F10C0847
:100A2000D8F8008048EA0008DFF8589009F10C096E
:100A3000C9F800800DE0DFF84C8008F10C08D8F808
:100A4000008028EA0008DFF83C9009F10C09C9F899
:100A500000805B1C102BFFF481AEBDE8F88700001E
:100A6000000011100010024000080140000C01407D
:100A7000001001400014014000180140001C01401A
:100A800008000140000401400AB1016101E00B04CB
:100A900003617047014800687047000004000020AF
:100AA00002480068401C01490860704704000020AB
:100AB00010B50848006840F010000649086005209D
:100AC00000F068F80F2000F007F800F017F8002099
:100AD00010BD00000020024070B5044600F0BAF9D5
:100AE0004FF47A71B0FBF1F5284600F08FFE00223A
:100AF0002146501E00F010F8002070BD704700BF66
:100B000000F01F02012191404209920002F1E0220F
:100B1000C2F8001100BF70472DE9F05F80460D4616
:100B20001646002701F060F9074639462A46334643
:100B300001F00700C0F1070ABAF1040F02D94FF023
:100B4000040A01E0C0F1070AD14600F1040ABAF133
:100B5000070F02D24FF0000A01E0A0F1030AD446C9
:100B60004FF0010A0AFA09FAAAF1010A0AEA020A8E
:100B70000AFA0CFA4FF0010B0BFA0CFBABF1010B6C
:100B80000BEA030B4AEA0B042146404601F034F914
:100B9000BDE8F09F00BF00F00702064B19684FF652
:100BA000FF031940044B0B4343EA0221014B196038
:100BB00000BF70470CED00E00000FA0570B5044678
:100BC0000D4600269F48006800F00700A8420ED29C
:100BD0009C48006820F0070028439A4908600846AE
:100BE000006800F00700A84201D0012070BD207805
:100BF00000F00200022807D19348406820F0F0007E
:100C0000A168084390494860207800F0010000285E
:100C10007CD0606801282DD12020010391FAA1F138
:100C2000B1FA81F108430121B1EB601F02D186487E
:100C300000680FE02020010391FAA1F1B1FA81F1DF
:100C400008430221B1EB601F02D17F48006A01E036
:100C50007D48406A20210A0392FAA2F2B2FA82F297
:100C6000114301F01F02012191400840002860D18A
:100C70000120BBE7606802282CD12020010591FAF1
:100C8000A1F1B1FA81F108430121B1EB601F02D15A
:100C90006D4800680FE02020010591FAA1F1B1FA3A
:100CA00081F108430221B1EB601F02D16648006A5E
:100CB00001E06548406A20210A0592FAA2F2B2FAE0
:100CC00082F2114301F01F0201219140084078BBDC
:100CD00001208BE72020022191FAA1F1B1FA81F1E4
:100CE00008430121B1EB601F02D15748006810E0B2
:100CF0002020022191FAA1F1B1FA81F108430221E9
:100D0000B1EB601F03D15048006A02E054E04E4846
:100D1000406A2021022292FAA2F2B2FA82F2114330
:100D200001F01F0201219140084008B901205DE750
:100D3000FFE74548406820F00300616808434249E6
:100D40004860FFF7A7FE06466068012810D108E05A
:100D5000FFF7A0FE801B41F28831884201D90320B1
:100D600044E73948406800F00C000428F0D123E043
:100D70006068022810D108E0FFF78CFE801B41F26A
:100D80008831884201D9032030E72F48406800F0BD
:100D90000C000828F0D10FE008E0FFF77BFE801B75
:100DA00041F28831884201D903201FE72648406874
:100DB00000F00C000028F0D12248006800F0070085
:100DC000A8420ED91F48006820F0070028431D499B
:100DD00008600846006800F00700A84201D0012022
:100DE00004E7207800F00400042807D11648406882
:100DF00020F4E060E168084313494860207800F07F
:100E00000800082808D11048406820F46050216983
:100E100040EAC1000C49486000F04EF80A494968B0
:100E200001F0F001F02292FAA2F2B2FA82F2D1407D
:100E3000064A515CC840064908600F20FFF74CFE87
:100E40000020D3E600200240001002405439000880
:100E500000000020014800687047000000000020EA
:100E600000B5FFF7F7FF0749496801F4E0614FF467
:100E7000E06292FAA2F2B2FA82F2D140024A515CE6
:100E8000C84000BD001002406439000800B5FFF7FB
:100E9000E1FF0749496801F460514FF4605292FA4A
:100EA000A2F2B2FA82F2D140024A515CC84000BDBF
:100EB0000010024064390008F0B585B00FF28C0CC8
:100EC0009CE8E01001A8A0E8E01024A52D6800959A
:100ED00000210024002200230020214D696801F038
:100EE0000C056DB3042D02D0082D28D101E01D485A
:100EF00028E001F470154FF4701696FAA6F6B6FACB
:100F000086F6F54001AE735D01F4803595B1144D60
:100F10006D6805F400354FF4003696FAA6F6B6FA79
:100F200086F6F5401DF805400E4DB5FBF4F505FBC2
:100F300003F202E00C4D03FB05F2104602E000BF95
:100F4000084800BF00BF05B0F0BD00000203040563
:100F5000060708090A0B0C0D0E0F10100102000005
:100F60000010024000127A0000093D0038B5044626
:100F70000025207800F0010000287CD0F848406867
:100F800000F00C0004280CD0F548406800F00C007C
:100F9000082837D1F248406800F48030B0F5803F2F
:100FA00030D12020010391FAA1F1B1FA81F1084377
:100FB0000121B1EB601F02D1E94800680FE0202059
:100FC000010391FAA1F1B1FA81F108430221B1EBD9
:100FD000601F02D1E248006A01E0E148406A202136
:100FE0000A0392FAA2F2B2FA82F2114301F01F024E
:100FF0000121914008400028BFD0606800283AD104
:10100000012038BD00BF6068B0F5803F06D1D448EC
:10101000006840F48030D249086028E0606858B920
:10102000CF48006820F48030CD4908600846006849
:1010300020F4802008601AE06068B0F5A02F0BD182
:10104000C748006840F48020C54908600846006829
:1010500040F4803008600AE0C148006820F4803025
:10106000BF4908600846006820F48020086000BF7F
:101070006068C8B300E06FE0FFF70CFD054606E0CE
:10108000FFF708FD401B642801D90320B9E72020A1
:10109000010391FAA1F1B1FA81F108430121B1EB09
:1010A000601F02D1AE4800680FE02020010391FAD2
:1010B000A1F1B1FA81F108430221B1EB601F02D125
:1010C000A748006A01E0A648406A20210A0392FA74
:1010D000A2F2B2FA82F2114301F01F020121914003
:1010E00008400028CCD037E0FFE7FFF7D3FC0546E7
:1010F00006E0FFF7CFFC401B642801D9032080E7FE
:101100002020010391FAA1F1B1FA81F108430121F4
:10111000B1EB601F02D1924800680FE0202001036C
:1011200091FAA1F1B1FA81F108430221B1EB601FFC
:1011300002D18B48006A01E08948406A20210A03F5
:1011400092FAA2F2B2FA82F2114301F01F020121D7
:10115000914008400028CCD1207800F002000228FD
:101160004ED17F48406800F00C0050B17C48406888
:1011700000F00C00082844D17948406800F4803021
:1011800078BB2020022191FAA1F1B1FA81F1084344
:101190000121B1EB601F02D1714800680FE02020EF
:1011A000022191FAA1F1B1FA81F108430221B1EBD8
:1011B000601F02D16A48006A01E06948406A202144
:1011C000022292FAA2F2B2FA82F2114301F01F0255
:1011D00001219140084028B12069012802D0012056
:1011E0000FE70EE05E48006820F0F800F82292FA5F
:1011F000A2F2B2FA82F2616991400843584908604C
:1012000091E02069F0B3012090FAA0F1B1FA81F1E8
:10121000544A42F82100FFF73DFC054606E0FFF77F
:1012200039FC401B022801D90320EAE620200221D4
:1012300091FAA1F1B1FA81F108430121B1EB601FEC
:1012400002D1474800680FE02020022191FAA1F165
:10125000B1FA81F108430221B1EB601F02D140488D
:10126000006A01E03E48406A2021022292FAA2F27E
:10127000B2FA82F2114301F01F02012191400840AD
:10128000002800E00FE0CAD03548006820F0F800E0
:10129000F82292FAA2F2B2FA82F26169914008430E
:1012A0002F4908603FE00020012191FAA1F1B1FA35
:1012B00081F12C4A42F82100FFF7ECFB054606E0DD
:1012C000FFF7E8FB401B022801D9032099E6202004
:1012D000022191FAA1F1B1FA81F108430121B1EBA8
:1012E000601F02D11E4800680FE02020022191FA01
:1012F000A1F1B1FA81F108430221B1EB601F02D1E3
:101300001748006A01E01648406A2021022292FA3A
:10131000A2F2B2FA82F2114301F01F0201219140C0
:1013200008400028CCD1207800F0080008284BD1D4
:10133000A069A8B3012191FAA1F0B0FA80F0094A9E
:1013400002EB8000C0F88014FFF7A4FB05460BE019
:10135000FFF7A0FB401B022806D9032051E600003E
:1013600000100240000042426020022191FAA1F1E7
:10137000B1FA81F108430121B1EB601F02D1F948B4
:10138000006810E06020022191FAA1F1B1FA81F128
:1013900008430221B1EB601F03D1F248006A02E06A
:1013A00013E0F048406A6021022292FAA2F2B2FAF7
:1013B00082F2114301F01F020121914008400028F0
:1013C000C6D00120FFF7B3F941E00020012191FAD6
:1013D000A1F1B1FA81F1E44A02EB8101C1F8800484
:1013E000FFF758FB054606E0FFF754FB401B0228B9
:1013F00001D9032005E66020022191FAA1F1B1FA9A
:1014000081F108430121B1EB601F02D1D54800688A
:101410000FE06020022191FAA1F1B1FA81F10843B5
:101420000221B1EB601F02D1CE48006A01E0CD4835
:10143000406A6021022292FAA2F2B2FA82F21143C9
:1014400001F01F020121914008400028CCD12078F2
:1014500000F00400042875D100BFC248C06940F004
:101460008050C049C8610846C06900F080500090B3
:1014700000BF00BFBD48006840F48070BB490860F1
:10148000FFF708FB054606E0FFF704FB401B642856
:1014900001D90320B5E5B548006800F48070002844
:1014A000F2D000BFE068012806D1AE48006A40F0E3
:1014B0000100AC49086227E0E06858B9A948006A11
:1014C00020F00100A74908620846006A20F00400E5
:1014D000086219E0E06805280BD1A248006A40F0D4
:1014E0000400A04908620846006A40F00100086252
:1014F0000AE09C48006A20F001009A490862084608
:10150000006A20F00400086200BFE068D0B3FFF773
:10151000C1FA054608E0FFF7BDFA401B41F28831E9
:10152000884201D903206CE54020022191FAA1F103
:10153000B1FA81F108430121B1EB601F03D1894861
:10154000006810E058E04020022191FAA1F1B1FAC0
:1015500081F108430221B1EB601F02D18148006A8A
:1015600001E08048406A4021022292FAA2F2B2FAD7
:1015700082F2114301F01F0201219140084000282E
:10158000C9D039E0FFE7FFF785FA054608E0FFF725
:1015900081FA401B41F28831884201D9032030E5AD
:1015A0004020022191FAA1F1B1FA81F10843012111
:1015B000B1EB601F02D16B4800680FE040200221B0
:1015C00091FAA1F1B1FA81F108430221B1EB601F58
:1015D00002D16448006A01E06248406A4021022268
:1015E00092FAA2F2B2FA82F2114301F01F02012133
:1015F000914008400028CAD1E069002873D05948BA
:10160000406800F00C0008286ED0E06902286CD118
:1016100000204FF0807191FAA1F1B1FA81F1524AA4
:1016200042F82100FFF736FA054606E0FFF732FAE6
:10163000401B022801D90320E3E42020010591FA90
:10164000A1F1B1FA81F108430121B1EB601F02D190
:10165000444800680FE02020010591FAA1F1B1FA99
:1016600081F108430221B1EB601F02D13D48006ABD
:1016700001E03C48406A20210A0592FAA2F2B2FA3F
:1016800082F2114301F01F0201219140084000281D
:10169000CCD1206AB0F5803F07D13248406820F4B1
:1016A0000030A16808432F494860D4E90801084385
:1016B0002C49496821F4741108432A4948600121E2
:1016C000080690FAA0F0B0FA80F0274A42F82010FD
:1016D000FFF7E0F9054609E0FFF7DCF9401B0228B7
:1016E00004D903208DE479E076E02CE02020010588
:1016F00091FAA1F1B1FA81F108430121B1EB601F28
:1017000002D1184800680FE02020010591FAA1F1EC
:10171000B1FA81F108430221B1EB601F02D11148F7
:10172000006A01E00F48406A20210A0592FAA2F2FD
:10173000B2FA82F2114301F01F02012191400840E8
:101740000028C9D04AE000204FF0807191FAA1F141
:10175000B1FA81F1044A42F82100FFF79BF90546EE
:101760000DE0000000100240000042420070004006
:10177000FFF790F9401B022801D9032041E4202003
:10178000010591FAA1F1B1FA81F108430121B1EB10
:10179000601F02D1124800680FE02020010591FA75
:1017A000A1F1B1FA81F108430221B1EB601F02D12E
:1017B0000B48006A01E00A48406A20210A0592FAB3
:1017C000A2F2B2FA82F2114301F01F02012191400C
:1017D00008400028CCD101E0012012E4002010E4F0
:1017E00000100240042808D14FF0E021096941F0BF
:1017F00004014FF0E022116107E04FF0E021096998
:1018000021F004014FF0E0221161704770B50446E9
:101810002546681EB0F1807F01D301200FE0681ECD
:101820004FF0E02148610F214FF0FF3000F0E4FA63
:1018300000204FF0E021886107200861002070BD82
:1018400010B504460CB9012010BD94F8390028B930
:10185000002084F83800204600F00CF8022084F8BC
:101860003900211D206800F0CFFC012084F83900E8
:101870000020E9E7704701460868C06840F00100B1
:101880000A68D0600868006840F001000A681060CB
:10189000002070477047014691F839007047F8B54D
:1018A0000446002500262068006800F00105206835
:1018B000C06800F4807625B11EB1E06B40F00100F5
:1018C000E06320680068C0F340052068406900F0CC
:1018D000010625B11EB1E06B40F00400E063206812
:1018E0000068C0F3800525B11EB1E06B40F0020036
:1018F000E06320680068C0F3C00525B11EB1E06B4D
:1019000040F00800E06320680068C0F340152068DC
:10191000C06800F020061DB116B1204600F002FD9F
:1019200020680068C0F3C0152068C06800F0800619
:101930001DB116B1204600F037FE20680068C0F3E4
:1019400080152068C06800F040061DB116B1204621
:1019500000F0D0FCE06B70B100BF20680068009020
:1019600020684068009000BF00BF012084F8390063
:101970002046FFF78FFFF8BD10B504460CB90120D3
:1019800010BDA06900B100E000BF94F8390028B98B
:10199000002084F83800204600F026F8022084F861
:1019A00039002068C06820F400502168C8602046D3
:1019B00000F016FD2068006920F49040216808615D
:1019C0002068406920F02A00216848612068C068CA
:1019D00040F400502168C8600020E063012084F8D2
:1019E00039000020CCE7000010B586B00446254938
:1019F0002068884244D100BF2348806940F0040039
:101A0000214988610846806900F00400019000BF08
:101A100000BF00BF0846806940F4804088610846E6
:101A2000806900F48040019000BF00BF00BF0846FD
:101A3000806940F0010088610846806900F001007B
:101A4000019000BF00BF48150290022003900120C2
:101A500004900320059002A90C48FEF775FE4FF490
:101A6000806002900020039002A90848FEF76CFEF7
:101A70002520FFF744F8032211462520FFF74CF8F4
:101A800006B010BD003801400010024000080140BF
:101A900030B50346002493F83940012C01D0122CB4
:101AA00037D101B10AB9012030BD00BF93F8380029
:101AB000012801D10220F7E7012083F8380000BF98
:101AC00099629A85DA850020D86393F83900122844
:101AD00003D1322083F8390002E0222083F8390054
:101AE00000BF002083F8380000BF1868C06840F4C9
:101AF00080701D68E8601868406940F001001D684A
:101B000068611868C06840F020001D68E860002027
:101B1000CAE70220C8E700001D4A0168914236D199
:101B20001C49098801F4004189BB1A49098801F45C
:101B3000804171B1184909780A2903D00021154A5A
:101B4000118024E01349098841F40041114A1180B1
:101B50001DE0114909780D2906D10E49098841F483
:101B600080410C4A118012E00B490978094A128819
:101B7000C2F30D02094B995406490988491C054ACC
:101B8000118011460988C72901DD002111807047A5
:101B90000038014010000020120000204401002005
:101BA000704700BFFEE7000000B585B000BF1048D9
:101BB000806940F008000E4988610846806900F09D
:101BC0000800009000BF00BFC020019001200290DB
:101BD00003900320049001A90648FEF7B5FD0120FB
:101BE000054908600549C1F8980105B000BD00002D
:101BF00000100240000C01409C81214200802142E3
:101C000070B504461548006820F07040134908601C
:101C10000846006840F04050086000201049086005
:101C2000002517E0E0090E49091D08606006040E52
:101C3000022000F05FFD01200A49C1F8980102204E
:101C400000F058FD002006490860022000F052FD17
:101C5000681CC5B2082DE5DB70BD0000000C01401A
:101C6000988121420080214210B50F48006820F081
:101C700070400D4908600846006840F04050086018
:101C800001200A4908600A49C1F89801042000F0BF
:101C900031FD002005490860042000F02BFD0020E4
:101CA0000349C1F8980110BD000C01409C812142FC
:101CB0000080214210B50F48006820F070400D49A7
:101CC00008600846006840F04050086000200A495B
:101CD00008600A49C1F89C01042000F00BFD0120B6
:101CE000054908600549C1F89C01042000F002FD87
:101CF00010BD0000000C014098812142008021426B
:101D000010B500241448006820F0704012490860A3
:101D10000846006840F00040086001200F49086054
:101D200000F0E8FC01200E49C1F8980100F0E2FC47
:101D300007E0601CC4B2FA2C03DDFFF7BBFF0120F3
:101D400010BD0648803800680028F2D10349091FF9
:101D5000086000BFF4E70000000C01409C812142B4
:101D60000080214200B585B000BF1A48806940F06C
:101D70000100184988610846806900F00100009060
:101D800000BF00BF00BF0846806940F004008861C2
:101D90000846806900F00400009000BF00BF0E48B4
:101DA000406820F0E06040F000700B4948604FF45C
:101DB000004001900120029003900320049001A9AB
:101DC0000648FEF7C1FC0122D1030448FEF75CFE81
:101DD00005B000BD001002400000014000080140B5
:101DE00000BFFEE77047000002480068C0F3022011
:101DF000704700000CED00E010B5002807DA0A0774
:101E0000140E054A00F00F031B1FD45403E00A0709
:101E1000130E024A135410BD18ED00E000E400E078
:101E200070B500240CE0002506E00020074901EB16
:101E3000C5010855681CC5B2802DF6DB601CC4B214
:101E4000082CF0DB00F08AF870BD00004C02002086
:101E5000F0B5144600267F2801DC3F2900DDF0BDE7
:101E60000B46CF1701EB5777FF10C7F10707FAB200
:101E7000CF1701EB5777FF10A1EBC707FDB2C5F1F4
:101E800007070123BB40DEB24CB10A4B03EBC00392
:101E90009B5C3343074F07EBC007BB5408E0054B7F
:101EA00003EBC0039B5CB343024F07EBC007BB547B
:101EB00000BFD4E74C02002010B5642000F00EFCF7
:101EC000AE2000F0CBFBD52000F0C8FB502000F086
:101ED000C5FBA82000F0C2FB3F2000F0BFFBD320D1
:101EE00000F0BCFB002000F0B9FB402000F0B6FB86
:101EF0008D2000F0B3FB142000F0B0FB202000F098
:101F0000ADFB022000F0AAFBA12000F0A7FBC82037
:101F100000F0A4FBDA2000F0A1FB122000F09EFBF1
:101F2000812000F09BFBEF2000F098FBD92000F00F
:101F300095FBF12000F092FBDB2000F08FFB3020BE
:101F400000F08CFBA42000F089FBA62000F086FBAB
:101F5000AF2000F083FBFFF763FF10BD70B50024D6
:101F600018E004F1B001C8B200F078FB002000F0E6
:101F700075FB102000F072FB002507E0074901EB1C
:101F8000C501085D00F080FB681CC5B2802DF5DB43
:101F9000601CC4B2082CE4DB70BD00004C020020C1
:101FA0002DE9F84F80460F4616461C46BA46204695
:101FB000E31704EB5373DB1021464FEAE47C04EB98
:101FC0005C7C4FEAEC0CA4EBCC0CBCF1000F02D013
:101FD0004FF0010C01E04FF0000C6344224604EB8B
:101FE000D27C4FEA6C0C03FB0CF303F0FF0BA6F161
:101FF0002000C6B200254EE00C2C07D106EB4600AF
:10200000274901EB8000405D009013E0102C05D1C2
:10201000244800EB0610405D00900BE0182C07D11F
:1020200006EBC600204901EB8000405D009001E016
:10203000BDE8F88F4FF0000927E0009800F080001D
:1020400028B1394640460A9AFFF702FF09E00A988C
:1020500008B9012000E00020024639464046FFF75B
:10206000F7FE00984006000E0090781CC7B2A7EB60
:102070000A00A04205D1574608F1010000F0FF0810
:1020800006E009F1010000F0FF09B9F1080FD4DB07
:1020900000BF681CC5B25D45AEDB00BFC8E70000ED
:1020A0006C390008E03D0008D0430008F8B506464A
:1020B0000F4615461C4621E004EBD4714910C1F1CE
:1020C0008001B14202DA00263819C7B2C4F14000DB
:1020D000B84204DA002006460746FFF7A1FE0120B9
:1020E00000902A78234639463046FFF759FF2046AC
:1020F00004EBD07106EB6101CEB26D1C28787E280E
:1021000002DC28782028D7DAF8BD7047704730B550
:102110008FB00546002401200590000406900020A1
:10212000079002200C90C1030D910E9505A8FEF7B3
:102130001DFF04460CB100BFFEE70F2000900220F7
:102140000190002002904FF48060039000200490E2
:1021500002216846FEF732FD04460CB100BFFEE7DF
:102160000FB030BD10B5FEF79BFC10BD11480068E4
:1021700040F001000F490860084640680E490840D9
:102180000C494860084600680C4908400949086045
:102190000846006820F4802008600846406820F463
:1021A000FE0048604FF41F008860C80304490860BF
:1021B00070470000001002400000FFF8FFFFF6FE2D
:1021C00008ED00E010B50E480068C06800F001009E
:1021D00078B10C49086980470020094909684862BC
:1021E00000BF642006490968C86264210448C160D0
:1021F00000BF6FF0010002490968086110BD0000CE
:102200004C06002050000020002202681D4B98421E
:102210000ED01D4B98420BD0B0F1804F08D01B4B15
:10222000984205D01A4B984202D01A4B984203D1DB
:1022300022F070024B681A43124B98420ED0124B98
:1022400098420BD0B0F1804F08D0104B984205D087
:102250000F4B984202D00F4B984203D122F44072A8
:10226000CB681A4302608B68C3620B688362054BBC
:10227000984202D0044B984201D10B6903630123B9
:1022800043617047002C01400034014000040040CD
:1022900000080040000C004038B504460D4600BF61
:1022A0001148C06940F004000F49C8610846C06980
:1022B00000F00400009000BF00BF032211461E2062
:1022C000FEF72AFC1E20FEF71AFC084808490860A1
:1022D0000846456000218160C4600161FFF7B0FAE3
:1022E0000348FFF7C8FA38BD00100240000800405C
:1022F0004C06002010B504462068C06820F040005D
:102300002168C86094F83900322803D1222084F86B
:10231000390002E0012084F839002046FFF740FC34
:10232000002010BD70B50446002694F83960222EB6
:1023300001D0322E52D1A068B0F5805F13D1A56ACA
:10234000206940B920684068C0F308002880A06A6E
:10235000801CA06219E020684068C0B22880A06A92
:10236000401CA06211E0206938B920684068C1B201
:10237000A26A501CA062117007E02068406800F05B
:102380007F01A26A501CA0621170E08D401E80B2D5
:10239000E08508BB2068C06820F020002168C86084
:1023A00094F83900322803D1122084F839000EE065
:1023B0002068C06820F480702168C8602068406987
:1023C00020F0010021684861012084F8390020468E
:1023D000FFF7A2FB002070BD0020FCE70220FAE717
:1023E0002DE9F041044600252068006920F44050A2
:1023F000E1680843216808612169A06808436169B0
:1024000040EA01052068C06841F20C618843284316
:102410002168C8602068406920F44070A1690843C1
:10242000216848615F49206888425CD1FEF72EFD33
:1024300000EBC00101EB001061688900B0FBF1F610
:10244000FEF724FD00EBC00101EB0010616889007C
:10245000B0FBF1F06421B0FBF1F000EBC00101EB47
:102460000010A6EB8000322101EB00106421B0FBCC
:10247000F1F000F0F006FEF709FD00EBC00101EB02
:10248000001061688900B0FBF1F06421B0FBF1F04D
:1024900006EB0016FEF7FAFC00EBC00101EB0010A2
:1024A00061688900B0FBF1F7FEF7F0FC00EBC001BA
:1024B00001EB001061688900B0FBF1F06421B0FB12
:1024C000F1F000EBC00101EB0010A7EB800032211E
:1024D00001EB00106421B0FBF1F000F00F0030447C
:1024E000216888605BE0FEF7BBFC00EBC00101EBFC
:1024F000001061688900B0FBF1F6FEF7B1FC00EB5B
:10250000C00101EB001061688900B0FBF1F06421AB
:10251000B0FBF1F000EBC00101EB0010A6EB800076
:10252000322101EB00106421B0FBF1F000F0F00665
:10253000FEF796FC00EBC00101EB0010616889001A
:10254000B0FBF1F06421B0FBF1F006EB0016FEF7F2
:1025500087FC00EBC00101EB001061688900B0FB53
:10256000F1F7FEF77DFC00EBC00101EB00106168A4
:102570008900B0FBF1F06421B0FBF1F000EBC00189
:1025800001EB0010A7EB8000322101EB0010642169
:10259000B0FBF1F000F00F00304421688860BDE826
:1025A000F08100000038014010B50146002391F889
:1025B0003930122B01D0322B2CD18868B0F5805FD6
:1025C0000FD10A6A1088C0F308000C6860600869BF
:1025D00018B9086A801C086209E0086A401C086291
:1025E00005E00C6A601C086220780C686060C88C8A
:1025F000401E80B2C88458B90868C06820F08000C6
:102600000C68E0600868C06840F040000C68E0605A
:10261000002010BD0220FCE710B500240C48FFF795
:102620003EF900BF01E0641C00BF0948FFF733F921
:102630000128F8D100BF002401E0641C00BF012282
:1026400004490348FFF724FA0028F6D100BF10BD63
:102650000C0200201200002000BFFEE710B5044667
:10266000FFF702FB7820FFF7CBFAFFF749FB0020CA
:10267000FFF7C6FAFFF744FB2046FFF7C1FAFFF762
:102680003FFBFFF717FB10BD10B50446FFF7ECFA50
:102690007820FFF7B5FAFFF733FB4020FFF7B0FAD9
:1026A000FFF72EFB2046FFF7ABFAFFF729FBFFF7FA
:1026B00001FB10BD30380A2801D2012070470020EC
:1026C000704700BF7047000010B504460420FFF7B4
:1026D00089F80148046010BD0800002030B50446A8
:1026E000002504E04FF47A7000F004F86D1CA54258
:1026F000F8D330BD70B5034600224FF0E02675696F
:102700000D4E366803FB06F44FF0E026B16910E089
:102710004FF0E026B06988420BD0884202D20E1AF0
:10272000324402E02E1A0E4432440146A24200D343
:1027300000E0EDE700BF70BD0800002000BF054AC3
:10274000126802F04002002AF9D0C2B2014B1B1DF0
:102750001A6070470038014000BFFEF7A9F94FF436
:102760008010FFF7D4FC4820FFF7AEFF4FF4E130B4
:1027700000F02AF8FFF7F6FAFFF716FAFFF79CFBCE
:10278000182308A200210846FFF790FCFFF7E6FB9C
:1027900007E00A48006808B9012000E00020074966
:1027A0000860F6E75348205949204A49414F5348A9
:1027B000205949204A49414F00000000BC012142F4
:1027C000014608687047000010B5044609480A49E8
:1027D00008600846446000218160C1600161816138
:1027E0000C214161FFF7C8F8012204490248FFF7B4
:1027F0004FF910BD003801400C02002012000020EB
:1028000030B595B0054613AB12AA09A9284600F0C9
:102810003FFA044614B1204615B030BD0020149094
:1028200026E0224909689DF8502001EBC20113AB54
:1028300011AA486801A900F02BFA04460CB1204601
:10284000EAE709A901A800F0E1FC60B99DF844009D
:102850009DF84810884201DD0220DDE79DF8500018
:10286000124988750AE09DF85000401CC0B21490CF
:102870000E48007D9DF850108842D2DC00BF0B4806
:10288000007D9DF85010884201D10420C4E714A9AE
:10289000284600F0DDFA04460CB12046BCE79DF85E
:1028A0005000024948750020B6E7000050000020A3
:1028B0002DE9F0419AB09C48847D007DA04202DC65
:1028C0001AB0BDE8F0819849096801EBC40106AB74
:1028D00007AA486808A900F0DBF908A993A0FDF74A
:1028E000C7FC002644E09048008B0121B14008401D
:1028F000D8B122218FA0FDF7BBFC304600F02EFBA3
:1029000089492431471839468BA0FDF7B1FC2221B3
:1029100088A0FDF7ADFC304600F020FB8249243151
:10292000084410A941F8260018E0304600F016FBD4
:102930007D492431085810A941F826007A48C07D05
:1029400030B910A850F826107CA0FDF791FC05E0E6
:1029500010A850F826107AA0FDF78AFC9DF81C00FC
:10296000401EB04202D078A0FDF782FC701CC6B2B7
:102970009DF81C008642B6DB74A0FDF779FC00F0E0
:102980003FFB6948407D0B280DD2DFE800F0060DC3
:10299000151E27323F4E5F7287006349096851F860
:1029A00034008047054690E05F4A126852F83410C0
:1029B00010988847054688E05B4B1B6853F8342025
:1029C000DDE91001904705467FE0574F3F6857F813
:1029D000343010A807C89847054676E0DFF848C1AC
:1029E000DCF800C05CF8347010A80FC8B847054682
:1029F0006BE01498DFF830C10090DCF800C05CF8A0
:102A0000347010A80FC8B84705465EE0DDE9140130
:102A1000DFF814C1CDE90001DCF800C05CF83470C7
:102A200010A80FC8B84705464FE0DDE91412169804
:102A3000DFF8F4C0CDE900120290DCF800C05CF8C9
:102A4000347010A80FC8B84705463EE0DDE91423EE
:102A5000DDE91610DFF8D0C0CDE90023CDE9021082
:102A6000DCF800C05CF8347010A80FC8B847054601
:102A70002BE0DDE91523DDE91710CDE90123CDE9D0
:102A800003101498DFF8A0C00090DCF800C05CF8D8
:102A9000347010A80FC8B847054616E0DDE91623C4
:102AA000DDE91810CDE90223CDE90410DDE91401B8
:102AB000DFF874C0CDE90001DCF800C05CF83470C8
:102AC00010A80FC8B847054600BF00BF00F056FA6F
:102AD0009DF8180001280CD11348C07D20B9294663
:102AE0001BA0FDF7C5FB07E029461BA0FDF7C0FBB7
:102AF00002E018A0FDF7BCFB0B4890F8EC0088B191
:102B00000948D0F8F0000A21B0FBF1F201FB1207EE
:102B10000548D0F8F000B0FBF1F83A46414611A064
:102B2000FDF7A6FB00BFCBE6500000200D0A257381
:102B3000280000002563000025730000256C640058
:102B400030582558000000002C000000290000002B
:102B50003D256C753B0D0A003D305825583B0D0A4C
:102B60000000000046756E6374696F6E2052756ECA
:102B70002054696D653A25642E2531646D730D0A04
:102B800000000000F0B50346154600200022002694
:102B900000245BE01F782C2F01D104B901221F789B
:102BA000292F01D01F780FB904B950E0002E3AD177
:102BB0001F78302F02DB1F78392F17DD1F782D2F5C
:102BC00014D01F782B2F11D01F78612F02DB1F78B4
:102BD000662F0BDD1F78412F02DB1F78462F05DDA6
:102BE0001F78582F02D01F78782F0CD102B12EE019
:102BF0001F78612F03DB1F78203F0F7001E01F78E3
:102C00000F70491C1FE01F78222F04D102B11EE073
:102C10000126012417E01F78202F14D01F782C2FB5
:102C200011D0FF2613E01F78222F00D1002402B11B
:102C30000DE044B11F785C2F02D15B1C471CF8B239
:102C40001F780F70491C471CF8B25B1CA2E700BF3D
:102C500000270F702E70F0BD10B5044600201070D4
:102C60000BE020780870641C491C1078401C107020
:102C70001078984201DB012010BD2078202802D076
:102C800020780028EDD10020087000BFF4E7000094
:102C90002DE9FF4F85B0804689460027002004902B
:102CA0000390012002904FF0000B002544461DE0E8
:102CB0002078202816D005F07F00052812DA0DB9FB
:102CC00045F0800505F07F00042803D120782A28EC
:102CD00000D00EE0207805F07F010DF80100681C9F
:102CE000C5B202E0852D00D103E0641C20780028E5
:102CF000DED100BF8DB1002005F07F010DF801008D
:102D000051A1684600F082FA18B9002108980170B4
:102D100002E001210898017000254FF0000A4446A6
:102D200014E0641C0AF1010000F0FF0A207820285A
:102D300002D020782A2809D1204600F0D9F9064689
:102D4000282E03D02A2E01D0CDF810A020782828D4
:102D500002D020780028E4D14446049810B10498A9
:102D6000401C04444FF0000A002654E0207810B9BB
:102D70004FF0010A50E02078282803D116B9781CBA
:102D8000C7B213E02078292808D13EB917B1781EC0
:102D9000C7B201E04FF0010A47B93DE02078222890
:102DA00004D10EB9012000E00020064647B9207882
:102DB00020282FD0207889F8000009F1010929E0A6
:102DC00020782C2804D101200290681CC5B214E0A0
:102DD0002078202811D0207828280ED04DB9BBF1BA
:102DE000050F06DA20780DF80B000BF1010000F05A
:102DF000FF0B0298401CC0B20290012F0AD102982A
:102E0000022807D10298401CC0B202900398401CCF
:102E1000C0B20390641CA9E700BF0398012809D140
:102E200000200DF80B0008A1684600F0EFF908B982
:102E300000200390079903980870002089F800008B
:102E4000504609B0BDE8F08F766F6964000000005D
:102E50002DE9F043B5B005460F460024002604E0F6
:102E600000213D488155701CC6B20A2EF8DB06E0F1
:102E70006D1C287818B9012035B0BDE8F08328789A
:102E80002828F5D16D1C61E034AA69462846FFF771
:102E900079FE064635449DF8D00020B1012827D0A0
:102EA000FF284CD149E09DF8000000B333A96846E3
:102EB00000F029F906460EB10220DDE7204600F0B9
:102EC0004DF825490A31339A0A50A1F12400008BAC
:102ED0000121A140884320491A39088304211E4852
:102EE0000155601CC4B20A2C01DD0320C4E726E0B2
:102EF000684600F0A7F9401C00F0FF08204600F0EB
:102F00002DF815490A3100EB01094946684600F0E1
:102F10008EF911481A38018B0120A040014388B274
:102F20000D491A3908830C4800F80480601CC4B2AB
:102F30000A2C01DD03209FE701E002209CE700BF8F
:102F40002878292801D0287800B900E09CE700BF44
:102F50003C70002090E700006A000020024600203C
:102F6000002105E0044B5B5C0344D8B24B1CD9B292
:102F70009142F7DB704700006A0000200E480068AD
:102F8000006900F0010040B10C48D0F8F0004FF6A5
:102F9000FF7108440949C1F8F0000848D0F8F00072
:102FA00005490968496A08440449C1F8F00008461F
:102FB000D0F8F000704700004C06002050000020C0
:102FC00010B5044604EBC40000EB04100122C2EB70
:102FD000800081B24FF47A70FFF75EF90120014959
:102FE000C87510BD5000002010B50246012000E059
:102FF00050430B1EA1F10104E1B2F9D110BD000054
:103000006FF0010009490968086100BF000C074919
:103010000968C86201460548C16000BF0020034935
:10302000096848620249C1F8F00070474C06002068
:103030005000002070B51D48008800F400400028B2
:1030400033D01A4805780020194948551948816835
:103050001748884704461CB91649C868804721E0CC
:10306000134800F0FBF80546012D00D02C46CCB1EA
:10307000012C06D0022C08D0032C0AD0042C10D12D
:103080000BE00DA0FDF7F4F80BE00EA0FDF7F0F853
:1030900007E00FA0FDF7ECF803E010A0FDF7E8F85B
:1030A00000BF00BF00200149088070BD1000002053
:1030B0004401002050000020BAAFCAFDB4EDCEF3A9
:1030C000210D0A00B2CECAFDB4EDCEF3210D0A00E7
:1030D000B2CECAFDCCABB6E0210D0A00CEB4D5D23B
:1030E000B5BDC6A5C5E4B5C4BAAFCAFD210D0A0079
:1030F0000146491C00E0491C0878202801D100291C
:10310000F9D1087870472DE9F04F05460F460026A3
:103110004FF00A09B3462C460020386034E020788E
:10312000392802DC2078302811DA28782D2802D0BE
:1031300028782B2800D156B12078462802DC207848
:10314000412804DA2078582817D1012E15D120788B
:10315000412801DB4FF0100928782D2803D14FF0CA
:10316000020B6D1C0FE028782B2803D14FF0010BC8
:103170006D1C08E0701CC6B205E0207800B904E0C0
:103180000120BDE8F08F641CC9E700BF2C46B9F1EF
:10319000100F0FD1032E01DA0220F2E72078302839
:1031A00006D16078582803D1A41CB01EC6B204E032
:1031B0000320E6E70EB90420E3E71BE00EB1701E22
:1031C000C6B22078392806DC2078302803DB207846
:1031D000A0F1300A02E02078A0F1370A31464846D3
:1031E000FFF702FF39680AFB00103860641C207882
:1031F00000B900E0E2E700BFBBF1020F04D138687C
:10320000C0F10008C7F800800020BAE702460AE0D3
:1032100010780B78984201D001207047107800B9DF
:1032200002E0521C491CF3E700BF0020F5E706E06E
:1032300002780A70027802B902E0401C491CF7E7E4
:1032400000BF70470146002005E00A7802B903E09C
:10325000421CD0B2491CF8E700BF704710B58CB0D3
:1032600004461E230BAA03A92046FFF7F5FC009095
:10327000009810B101200CB010BD9DF82C00044442
:1032800000200B900EE040489DF82C2050F82210B2
:1032900003A8FFF7BBFF00B908E09DF82C00401C15
:1032A000C0B20B909DF82C000728ECD300BF9DF80E
:1032B0002C00072863D2DFE800F004053C5E65645B
:1032C000630000BF31A0FCF7D3FF31A0FCF7D0FFB3
:1032D0003FA0FCF7CDFF4EA0FCF7CAFF5CA0FCF7B7
:1032E000C7FF6BA0FCF7C4FF79A0FCF7C1FF87A064
:1032F000FCF7BEFF8CA0FCF7BBFF94A0FCF7B8FF67
:1033000098A0FCF7B5FF9DA0FCF7B2FFA2A0FCF7C8
:10331000AFFFA8A0FCF7ACFFB4A0FCF7A9FFC1A0C9
:10332000FCF7A6FFCCA0FCF7A3FFD8A0FCF7A0FFFA
:10333000A2E216A0FCF79CFFE4A0FCF799FF002096
:103340000B900EE0F14800689DF82C2000EBC200C5
:103350004168EFA0FCF78CFF9DF82C00401CC0B228
:103360000B90EA48007D9DF82C108842EADC07A00B
:10337000FCF77EFF80E205A0FCF77AFFCCE179E262
:103380004DE221E2F4E10000140000200D0A0000EB
:103390002D2D2D2D2D2D2D2D2D2D2D2D2D2D2D2D5D
:1033A0002D2D2D2D2D2D2D2D55534D415254205663
:1033B000332E332D2D2D2D2D2D2D2D2D2D2D2D2D30
:1033C0002D2D2D2D2D2D2D2D2D2D2D200D0A0000D7
:1033D0002020202055534D415254CAC7D3C9414CD7
:1033E00049454E54454BBFAAB7A2B5C4D2BBB8F6A7
:1033F000C1E9C7C9B5C4B4AEBFDAB5F7CAD4BBA575
:10340000BDBBD7E9BCFE2CCDA8B9FD200D0A00003C
:10341000CBFC2CC4E3BFC9D2D4CDA8B9FDB4AEBF98
:10342000DAD6FACAD6B5F7D3C3B3CCD0F2C0EFC35D
:10343000E6B5C4C8CEBACEBAAFCAFD2CB2A2D6B4D5
:10344000D0D02ED2F2B4CB2CC4E3BFC90D0A0000F9
:10345000D2D4CBE6D2E2B8FCB8C4BAAFCAFDB5C488
:10346000CAE4C8EBB2CECAFD28D6A7B3D6CAFDD7E8
:10347000D62831302F3136BDF8D6C62CD6A7B3D6D4
:10348000B8BACAFD29A1A2D7D6B7FBB4AE0D0A00BF
:10349000A1A2BAAFCAFDC8EBBFDAB5D8D6B7B5C8D6
:1034A000D7F7CEAAB2CECAFD292CB5A5B8F6BAAFC9
:1034B000CAFDD7EEB6E0D6A7B3D63130B8F6CAE427
:1034C000C8EBB2CECAFD2CB2A2D6A7B3D60D0A0065
:1034D000BAAFCAFDB7B5BBD8D6B5CFD4CABE2ED603
:1034E000A7B3D6B2CECAFDCFD4CABEBDF8D6C6C920
:1034F000E8D6C3B9A6C4DC2CD6A7B3D6BDF8D6C6C9
:10350000D7AABBBBB9A6C4DC2E0D0A00BCBCCAF549
:10351000D6A7B3D63A7777772E6F70656E656476E7
:103520002E636F6D0D0A000055534D415254D3D098
:1035300037B8F6CFB5CDB3C3FCC1EE28B1D8D0EBC8
:10354000D0A1D0B4293A0D0A000000003F3A202053
:1035500020202020BBF1C8A1B0EFD6FAD0C5CFA261
:103560000D0A000068656C703A202020BBF1C8A1EC
:10357000B0EFD6FAD0C5CFA20D0A00006C69737403
:103580003A202020BFC9D3C3B5C4BAAFCAFDC1D049
:10359000B1ED0D0A0A00000069643A2020202020C5
:1035A000BFC9D3C3BAAFCAFDB5C44944C1D0B1ED98
:1035B0000D0A0A006865783A20202020B2CECAFDA4
:1035C0003136BDF8D6C6CFD4CABE2CBAF3B8FABFCE
:1035D000D5B8F12BCAFDD7D6BCB4D6B4D0D0BDF87F
:1035E000D6C6D7AABBBB0D0A0A0000006465633AC1
:1035F00020202020B2CECAFD3130BDF8D6C6CFD4AF
:10360000CABE2CBAF3B8FABFD5B8F12BCAFDD7D6CB
:10361000BCB4D6B4D0D0BDF8D6C6D7AABBBB0D0AB1
:103620000A00000072756E74696D653A312CBFAA8C
:10363000C6F4BAAFCAFDD4CBD0D0BCC6CAB13B30F9
:103640002CB9D8B1D5BAAFCAFDD4CBD0D0BCC6CA7C
:10365000B13B0D0A0A000000C7EBB0B4D5D5B3CC1E
:10366000D0F2B1E0D0B4B8F1CABDCAE4C8EBBAAF89
:10367000CAFDC3FBBCB0B2CECAFDB2A2D2D4BBD885
:10368000B3B5BCFCBDE1CAF82E0D0A002D2D2D2DC1
:103690002D2D2D2D2D2D2D2D2D2D2D2D2D2D2D2D5A
:1036A0002D2D2D2D2D2D414C49454E54454B2D2D65
:1036B0002D2D2D2D2D2D2D2D2D2D2D2D2D2D2D2D3A
:1036C0002D2D2D2D2D2D2D200D0A00002D2D2D2DD4
:1036D0002D2D2D2D2D2D2D2D2D2D2D2D2D2D2D2D1A
:1036E0002D2D2D2D2DBAAFCAFDC7E5B5A52D2D2D3C
:1036F0002D2D2D2D2D2D2D2D2D2D2D2D2D2D2D2DFA
:103700002D2D2D2D2D2D2D2D200D0A0050000020AA
:1037100025730D0A0000000059A0FCF7A9FD002048
:103720000B901AE0664909689DF82C2001EBC20154
:1037300001AB02AA486803A9FFF7AAFA604800682B
:103740009DF82C1050F8312003A95EA0FCF790FDE5
:103750009DF82C00401CC0B20B905948007D9DF88C
:103760002C108842DEDCAFF2DC30FCF781FD83E018
:10377000AFF2E830FCF77CFD0BAA03A92046FFF767
:1037800001FA9DF82C00C8B9694603A8FFF7BBFCF5
:103790000B909DF82C0020B94FA00099FCF768FD14
:1037A0000EE09DF82C00042801D0022063E54DA016
:1037B000FCF75EFD01204249C87501E002205AE590
:1037C00047A0FCF755FD57E045A0FCF751FD0BAABB
:1037D00003A92046FFF7D6F99DF82C00C8B9694621
:1037E00003A8FFF790FC0B909DF82C0020B942A095
:1037F0000099FCF73DFD0EE09DF82C00042801D057
:10380000022038E53FA0FCF733FD00202C49C875A5
:1038100001E002202FE532A0FCF72AFD2CE030A0C9
:10382000FCF726FD0BAA03A92046FFF7ABF99DF88C
:103830002C00C8B9694603A8FFF765FC0B909DF8FA
:103840002C0078B91E49009881F8EC00084690F8E1
:10385000EC0018B130A0FCF70BFD07E035A0FCF739
:1038600007FD03E0022006E5022004E51CA0FCF7AA
:10387000FFFC01E00120FEE400BF0020FBE40000AB
:103880002D2D2D2D2D2D2D2D2D2D2D2D2D2D2D2D68
:103890002D2D2D2D2D2D2D2D2DBAAFCAFD204944B6
:1038A000202D2D2D2D2D2D2D2D2D2D2D2D2D2D2D55
:1038B0002D2D2D2D2D2D2D2D2D2D2D2D200D0A00B5
:1038C0005000002025732069642069733A0D0A3086
:1038D00058253038580D0A004845583A3058255870
:1038E0000D0A00003136BDF8D6C6B2CECAFDCFD41F
:1038F000CABE210D0A0000004445433A256C750DEF
:103900000A0000003130BDF8D6C6B2CECAFDCFD411
:10391000CABE210D0A00000052756E2054696D6503
:103920002043616C63756C6174696F6E204F4E0D3E
:103930000A00000052756E2054696D652043616C69
:1039400063756C6174696F6E204F46460D0A000006
:103950000160704700000000000000000102030445
:10396000060708090000000001020304000000002F
:103970000000000000000000000000003F400000C8
:103980000000000000003000400030004000000057
:1039900009000BC03D000BC03D00090018C02440C9
:1039A0007FE0224031800000180024C01B000D8001
:1039B0003240018003801C4027401C8007400040AB
:1039C0001000600000000000000000000000000087
:1039D00000001F80204040200000402020401F8029
:1039E00000000000090006001F800600090000001A
:1039F000040004003F800400040000000010006088
:103A000000000000000000000400040004000400A6
:103A10000400000000000040000000000000000062
:103A2000002001C006003800400000001F80204038
:103A3000204020401F800000000010403FC0004098
:103A40000000000018C0214022402440184000001F
:103A500010802040244024401B80000002000D0004
:103A600011003FC0014000003C802440244024401D
:103A7000238000001F802440244034400380000045
:103A80003000200027C03800200000001B802440A8
:103A9000244024401B8000001C0022C02240224001
:103AA0001F8000000000000008400000000000002F
:103AB000000000000460000000000000000004009E
:103AC0000A00110020804040090009000900090097
:103AD0000900000000004040208011000A0004009E
:103AE0001800200023402400180000001F80204000
:103AF000274029401F400000004007C039000F0048
:103B000001C0004020403FC0244024401B800000F2
:103B10001F802040204020403080000020403FC0D7
:103B2000204020401F80000020403FC024402E4005
:103B300030C0000020403FC024402E003000000074
:103B40000F001080204022403380020020403FC000
:103B5000040004003FC02040204020403FC02040DF
:103B6000204000000060202020203FC020002000D6
:103B700020403FC024400B0030C0204020403FC0C8
:103B800020400040004000C03FC03C0003C03C005B
:103B90003FC0000020403FC00C4023003FC0200039
:103BA0001F802040204020401F80000020403FC058
:103BB00024402400180000001F802140214020E004
:103BC0001FA0000020403FC02440260019C0004034
:103BD00018C02440244022403180000030002040A2
:103BE0003FC020403000000020003F8000400040E7
:103BF0003F80200020003E0001C007003800200068
:103C0000380007C03C0007C038000000204039C021
:103C1000060039C0204000002000384007C038406E
:103C200020000000304021C02640384020C0000065
:103C3000000000007FE040204020000000007000F5
:103C40000C000380004000000000402040207FE086
:103C500000000000000020004000200000000000E4
:103C600000100010001000100010001000000000F4
:103C700040000000000000000000028005400540F8
:103C800003C0004020003FC0044004400380000007
:103C90000000038004400440064000000000038050
:103CA000044024403FC00040000003800540054020
:103CB00003400000000004401FC0244024402000B6
:103CC000000002E0055005500650042020403FC08F
:103CD0000440040003C000400000044027C000402E
:103CE0000000000000100010041027E00000000099
:103CF00020403FC00140070004C004402040204055
:103D00003FC000400040000007C0040007C004009E
:103D100003C00000044007C00440040003C000408A
:103D2000000003800440044003800000041007F0FA
:103D3000045004400380000000000380044004504D
:103D400007F00010044007C0024004000400000017
:103D5000000006400540054004C0000000000400CB
:103D60001F80044000400000040007800040044021
:103D700007C000400400070004C0018006000400E2
:103D8000060001C0070001C006000000044006C094
:103D9000010006C0044000000410071004E0018088
:103DA000060004000000044005C006400440000076
:103DB0000000000004007BE0402000000000000044
:103DC0000000FFF000000000000040207BE0040045
:103DD0000000000040008000400020002000400063
:103DE00000000000000000000000000000000000D3
:103DF0000000000000001FCC000C000000000000CC
:103E00000000080030006000080030006000000082
:103E1000022003FC1E20022003FC1E2002200000C2
:103E200000000E1811043FFF10840C780000000001
:103E30000F0010840F3800C0077818840078000045
:103E400000780F8410C411240E9800E40084000848
:103E50000800680070000000000000000000000082
:103E600000000000000007E01818200440020000D5
:103E7000000040022004181807E0000000000000C5
:103E80000240024001800FF0018002400240000029
:103E90000080008000800FF800800080008000001B
:103EA0000001000D000E00000000000000000000F6
:103EB0000000008000800080008000800080008082
:103EC0000000000C000C00000000000000000000DA
:103ED00000000006001800600180060018002000A5
:103EE000000007F0080810041004080807F000009C
:103EF0000000080408041FFC000400040000000087
:103F000000000E0C10141024104411840E0C00003C
:103F100000000C1810041104110412880C70000029
:103F2000000000E00320042408241FFC00240000FB
:103F300000001F98108411041104108810700000F4
:103F4000000007F0088811041104188800700000B0
:103F500000001C00100010FC13001C0010000000EA
:103F600000000E3811441084108411440E380000F3
:103F700000000700088C10441044088807F0000077
:103F8000000000000000030C030C00000000000013
:103F90000000000000010106000000000000000019
:103FA00000000080014002200410080810040000F6
:103FB0000220022002200220022002200220000013
:103FC00000001004080804100220014000800000D6
:103FD00000000E001200100C106C10800F0000008A
:103FE00003E00C1813E4142417C4082807D00000B9
:103FF0000004003C03C41C40074000E4001C000413
:1040000010041FFC1104110411040E88007000003C
:1040100003E00C1810041004100410081C10000019
:1040200010041FFC100410041004080807F000001E
:1040300010041FFC1104110417C410040818000018
:1040400010041FFC1104110017C01000080000002C
:1040500003E00C181004100410441C780040000009
:1040600010041FFC10840080008010841FFC1004CA
:104070000000100410041FFC1004100400000000D5
:1040800000030001100110011FFE100010000000CD
:1040900010041FFC110403801464181C1004000099
:1040A00010041FFC1004000400040004000C0000B5
:1040B00010041FFC1F0000FC1F001FFC1004000068
:1040C00010041FFC0C04030000E010181FFC10007B
:1040D00007F00808100410041004080807F0000096
:1040E00010041FFC10841080108010800F0000004E
:1040F00007F0081810241024101C080A07F200000A
:1041000010041FFC1104110011C011300E0C00042A
:1041100000000E1C11041084108410441C38000090
:104120001800100010041FFC1004100018000000FC
:1041300010001FF810040004000410041FF8100001
:1041400010001E0011E0001C007013801C00100005
:104150001FC0103C00E01F0000E0103C1FC000002A
:104160001004180C163401C001C01634180C1004C9
:1041700010001C00130400FC13041C0010000000BD
:104180000804101C1064108413041C041018000090
:104190000000000000007FFE4002400240020000DC
:1041A000000030000C0003800060001C00030000D1
:1041B00000004002400240027FFE000000000000BC
:1041C00000000000200040004000400020000000EF
:1041D00000010001000100010001000100010001D7
:1041E000000040004000200000000000000000002F
:1041F00000000098012401440144014400FC000433
:1042000010001FFC008801040104008800700000F9
:10421000000000700088010401040104008800000F
:104220000000007000880104010411081FFC000454
:10423000000000F8014401440144014400C80000AA
:104240000000010401040FFC110411041100180006
:10425000000000D601290129012901C90106000039
:1042600010041FFC008401000100010400FC000494
:1042700000000104190419FC0004000400000000FF
:104280000000000300010101190119FE00000000F7
:1042900010041FFC0024004001B4010C01040000C4
:1042A0000000100410041FFC0004000400000000C3
:1042B000010401FC0104010001FC0104010000FCF7
:1042C000010401FC008401000100010400FC000461
:1042D000000000F8010401040104010400F80000DA
:1042E000010101FF00850104010400880070000045
:1042F00000000070008801040104010501FF0001B5
:104300000104010401FC008401040100018000009B
:10431000000000CC012401240124012401980000A4
:1043200000000100010007F8010401040000000082
:10433000010001F8000400040004010801FC00046D
:10434000010001800170000C00100160018001007B
:1043500001F0010C003001C00030010C01F001003F
:1043600000000104018C00740170018C0104000044
:10437000010101810171000E00180160018001003E
:1043800000000184010C013401440184010C00008F
:10439000000000000000000001003EFC400240025E
:1043A0000000000000000000FFFF0000000000000F
:1043B0000000400240023EFC01000000000000003E
:1043C00000006000800080004000400020002000CD
:1043D00000000000000000000000000000000000DD
:1043E00000000000000000000000000000000000CD
:1043F00000000000000000000000000000000000BD
:104400000000000F80380FFE380F803800000000D9
:10441000000000000000000000000000000001009B
:10442000000600000C00003800003100000600000B
:104430000C00003800003000000000000000000008
:1044400061800067F807F980006180006180006189
:10445000800061800067F807F9800061800000003B
:1044600000000000000001C0E003E0F00630080496
:1044700018081FFFFE040E080787F00381E0000004
:104480000000000001F000060C00040408060C7097
:1044900001F9C0000E00003BE000EC18070808041A
:1044A0000C180003E00000000001E00007F003F832
:1044B00018041C0804170807E1D003C0E00023B06B
:1044C000003C08002008000010000000000000016F
:1044D00000003100003200001C000000000000005D
:1044E00000000000000000000000000000000000CC
:1044F00000000000000000000000000000000000BC
:104500007F0001FFC00780F00C001810000420009D
:10451000020000000000002000021000040C00183F
:104520000780F001FFC0007F0000000000000000D5
:1045300000000000000000000000000042000066D3
:1045400000006600003C0000180003FFC0001800D7
:10455000003C000066000066000042000000000011
:10456000080000080000080000080000080001FF23
:10457000C000080000080000080000080000080053
:1045800000000000000100003100003200001C00AB
:10459000000000000000000000000000000000001B
:1045A00000000000000000000800000800000800F3
:1045B00000080000080000080000080000080000D3
:1045C00008000008000000000000000000000000DB
:1045D0003800003800003800000000000000000033
:1045E00000000000000000000000000000000000CB
:1045F000000600001C000070000180000E00003862
:104600000000C0000700001C000030000000000097
:10461000000000007F8001FFE003807006001804A6
:10462000000804000806001803807001FFE0007F06
:1046300080000000000000000000010008010008E8
:1046400001000803FFF807FFF80000080000080059
:10465000000800000000000000000001C03802C097
:1046600058040098040118040218040418061C18C1
:1046700003F81801E0F8000000000000000000014D
:10468000C0E003C0F0040008040808040808061885
:104690000803F41801E7F00001E00000000000004A
:1046A000000000000300000D000011000061000088
:1046B000810803010807FFF80FFFF8000108000157
:1046C000080000000000000000E007FCD006080819
:1046D000061008061008061008061838060FF0061F
:1046E00007C0000000000000000000003F8001FF44
:1046F000E0038430020818041008041008041008AD
:10470000071810030FF00007C000000000000000B1
:10471000000003C0000700000600000600F80607BE
:10472000F806180006E00007000006000000000080
:1047300000000001E1E003F7F0063410041808045B
:104740001808040C08040C0806161803F3F001C13D
:10475000E000000000000000F80003FC3003063811
:104760000402080402080402080404100308F0010B
:10477000FFC0007F000000000000000000000000FB
:104780000000000000000000703800703800703831
:104790000000000000000000000000000000000019
:1047A000000000000000000000000000301A00308F
:1047B0001C000000000000000000000000000000DD
:1047C00000000000000000080000140000220000AB
:1047D0004100008080010040020020040010080019
:1047E000080000000000000021000021000021005E
:1047F0000021000021000021000021000021000014
:10480000210000210000000000000000000008005E
:1048100008040010020020010040008080004100D8
:104820000022000014000008000000000000000347
:10483000C00004C000040000080038080F38080851
:10484000380810000C300007E00003C00000000032
:10485000000000003F8000FFE0038070020F1006A0
:10486000708804C088048308047F8802C090030114
:104870002000FE400000080000180001F8003E087B
:1048800001C20007020007E20000FE00001FC8008E
:1048900001F800003800000804000807FFF807FFCF
:1048A000F80408080408080408080408080618089A
:1048B00003F41801E7F00001E00000000000000030
:1048C0003F8001FFE003807002001804000804002C
:1048D000080400080400100600200780C000000043
:1048E00004000807FFF807FFF804000804000804A4
:1048F000000804001802001003807001FFE0007F30
:104900008000000004000807FFF807FFF80408080B
:10491000040808040808040808043E0804000806FF
:10492000001801006000000004000807FFF807FFFE
:10493000F8040808040800040800040800043E0005
:1049400006000006000001800000000000000000DA
:104950003F8001FFE0038070060018040008040295
:10496000080402080203F00783F0000200000200BE
:1049700004000807FFF807FFF80408080008000013
:10498000080000080000080004080807FFF807FFF7
:10499000F8040008000000000000040008040008FB
:1049A00004000807FFF807FFF804000804000804E3
:1049B00000080000000000000000000000060000E9
:1049C0000700000104000104000104000307FFFECA
:1049D00007FFFC04000004000004000004000807B6
:1049E000FFF807FFF8040C08001800003E0004C799
:1049F000800503C80600F804003804001800000809
:104A000004000807FFF807FFF8040008000008008A
:104A1000000800000800000800000800001800005E
:104A20006000000004000807FFF807800807FC008A
:104A3000007FC00003F80007C00078000780080767
:104A4000FFF807FFF804000804000807FFF8070054
:104A50000803C00000E000003800001E000007004E
:104A60000001C00400F007FFF8040000000000008F
:104A70007F8001FFE0038070060018040008040036
:104A80000806001803003001FFE0007F80000000EE
:104A900004000807FFF807FFF804040804040004F2
:104AA0000400040400040400060C0003F80001F0F4
:104AB00000000000000000007F8001FFE003807024
:104AC0000600880400880400C806003C03003E017C
:104AD000FFE6007F8400000004000807FFF807FFDE
:104AE000F8040808040800040C00040F00040BC0BC
:104AF0000610F003F03801E0080000080000000193
:104B0000E0F803F030063010041808041808040C0C
:104B100008040C080206180207F00781E0000000F4
:104B200001800006000004000004000004000807E3
:104B3000FFF807FFF8040008040000040000060066
:104B40000001800004000007FFE007FFF0040018E8
:104B50000000080000080000080000080000080429
:104B6000001007FFE004000004000006000007E05A
:104B70000007FE00041FE00001F80000380001E01B
:104B8000043E0007C0000600000400000400000707
:104B9000E00007FFC0041FF80007C007F80007FF88
:104BA00080043FF80007C004F8000700000400007C
:104BB00000000004000806001807C07805F1C800CE
:104BC0003E00001F800463E80780F8060018040018
:104BD0000800000004000006000007800007E0084D
:104BE000047C08001FF80007F800180804E0080714
:104BF000000006000004000000000001000806009C
:104C0000380400F80403E8040F08047C0805F008E1
:104C100007C0080700180400600000000000000042
:104C200000000000000000000000003FFFFE200028
:104C300002200002200002200002200002000000EA
:104C400000000000000008000007000000C0000095
:104C500038000006000001C000003000000E000017
:104C600001000000000000000000200002200002FF
:104C70002000022000022000023FFFFE0000000092
:104C80000000000000000000000000000000000024
:104C9000000800001000003000002000003000007C
:104CA00010000008000000000000000000000100EB
:104CB00000010000010000010000010000010000EF
:104CC00001000001000001000001000001000001DE
:104CD0000000000000000000002000002000001084
:104CE00000001000000000000000000000000000B4
:104CF000000000000000000000F00019F8001B1880
:104D0000002208002608002408002410003FF800B4
:104D10001FF800000800001800000004000007FF52
:104D2000F80FFFF0001818001008002008002008F5
:104D3000003018001FF0000FC0000000000000004D
:104D400007C0001FF00018300020080020080020D5
:104D500008003C08001C100000600000000000007B
:104D60000000000007C0001FF000381800200800F5
:104D7000200800200804101007FFF80FFFF00000C3
:104D8000100000000000000000000007C0001FF03D
:104D90000012300022180022080022080032080009
:104DA0001E10000E20000000000000002000002067
:104DB0000800200801FFF803FFF806200804200877
:104DC000042008072000030000000000000000008D
:104DD000000E000E6E001FF30031B10020B1002064
:104DE000B1003191001F13002E1E00200E00300074
:104DF00000000004000807FFF80FFFF8001008008B
:104E00002000002000002008003FF8001FF80000EC
:104E1000080000000000000000000020080020083A
:104E2000002008063FF8063FF800000800000800D0
:104E3000000800000000000000000000000000006A
:104E400003000003002001002001002003063FFEB4
:104E5000063FFC000000000000000000000000040D
:104E6000000807FFF80FFFF8000188000300002F7B
:104E7000C00038F8002038002008000008000000BA
:104E800000000000000004000804000804000807F7
:104E9000FFF80FFFF80000080000080000080000FD
:104EA00000000000002008003FF8003FF800100854
:104EB000002000003FF8003FF8001008002000002C
:104EC0003FF8003FF8000008000000002008003F05
:104ED000F8003FF800100800100000200000200833
:104EE000003FF8001FF8000008000000000000006C
:104EF00007C0000FF0001830003008002008002024
:104F000008003008001830000FF00007C000000053
:104F1000000000002001003FFF003FFF00101100D3
:104F20002009002008002008003038001FF0000F82
:104F3000C00000000000000007C0001FF00038188B
:104F4000002008002008002009001011001FFF00A9
:104F50003FFF0000010000000020080020080020A2
:104F600008003FF8003FF80008080010080020087B
:104F700000200000300000300000000000000000B1
:104F80000000000C78001E180033080023080021E0
:104F9000080021880021980030F0003860000000EF
:104FA00000000000200000200000200000FFF003AF
:104FB000FFF8002008002008002008000030000052
:104FC00000000000000000002000003FF0007FF81B
:104FD000000018000008000008002010003FF80042
:104FE0007FF00000100000000000000020000030F2
:104FF00000003C00003F800023F0000078000070BB
:10500000002380003C000030000020000020000051
:105010003C00003FE00023F80000E0002700003ED5
:1050200000003FE00021F80001E0003E0000200009
:10503000000000002008002008003838003E68000A
:1050400027800003C8002CF8003838002018002002
:1050500008000000000000002000003003003C01B8
:10506000003F830023EC000070002380003C000020
:1050700020000020000000000000000000000038B8
:10508000080020380020F80023E8002F88003E08A0
:105090000038080020180000700000000000000028
:1050A00000000000000000000000000008000014E4
:1050B000001FF7FC30000620000200000000000086
:1050C00000000000000000000000000000000000E0
:1050D0000000FFFFFF0000000000000000000000D3
:1050E0000000000000000000000020000230000668
:1050F0001FF7FC0014000008000000000000000082
:105100000000000000000000000000180000600027
:1051100000400000400000200000100000080000D7
:105120000400000400000C000010000000060AFE4D
:105130000AC600E000F000F8000000000000FE7D5C
:10514000BBC7EFEFEFEFEFEFEFC7BB7DFE00000057
:10515000000000000000000000000000000000004F
:10516000000000000000000000000000000000003F
:10517000000000000000000000000000000000002F
:105180000000000000000000000000080CFEFE0C03
:10519000082060FEFE60200000007848FE82BABA57
:1051A00082BABA82BABA82BABA82FE00000000009D
:1051B00000000000000000000000000000000001EE
:1051C00001010101010101010101010100000000D3
:1051D00000000000000000000000000000000000CF
:1051E00000000000000000000000000000000000BF
:1051F00000000000000000000000000000000000AF
:10520000000000000000000000000000000000009E
:10521000000000000000000000000000000000008E
:10522000000000000000000000000000000000007E
:10523000000000000000000000000000000000006E
:1052400000000000000000000000FEFF0303030355
:105250000303030303FFFF0000FEFF030303030335
:1052600003030303FFFE00000000C0C0C0000000F5
:1052700000FEFF030303030303030303FFFE000019
:10528000FEFF030303030303030303FFFE00000009
:10529000000000000000000000000000000000000E
:1052A00000000000000000000000000000000000FE
:1052B00000000000000000000000000000000000EE
:1052C00000000000000000000000FFFF00000000E0
:1052D0000000000000FFFF0000FFFF0C0C0C0C0C96
:1052E0000C0C0C0CFFFF00000000E1E1E1000000ED
:1052F00000FFFF000000000000000000FFFF0000B2
:10530000FFFF0C0C0C0C0C0C0C0C0CFFFF00000035
:10531000000000000000000000000000000000008D
:10532000000000000000000000000000000000007D
:10533000000000000000000000000000000000006D
:10534000000000000000000000000F1F18181818CF
:1053500018181818181F0F00000F1F181818181801
:10536000181818181F0F00000000000000000000AF
:10537000000F1F1818181818181818181F0F0000F9
:105380000F1F1818181818181818181F0F000000E9
:10539000000000000000000000000000000000000D
:1053A00000000000000000000000000000000000FD
:1053B00000000000000000000000000000000000ED
:1053C00000000000000000000000000000000000DD
:1053D00000E2928A8600007C8282827C00FE00824B
:1053E00092AAC60000C0C0007C8282827C000002BB
:1053F0000202FE0000C0C0007C8282827C0000FEAF
:10540000000000000000000000000000000000009C
:10541000000000000000000000000000000000008C
:105420000000000000000000000000000024A42E86
:1054300024E4242EA424000000F84A4C48F8484CE8
:105440004AF800000000000000000000000000001A
:10545000000000000000000000000000000000004C
:10546000000000000000000000000000000000003C
:10547000000000000000000000000000000000002C
:10548000000000000000000000000000000000001C
:105490000000000000000000C0201010101020C00C
:1054A0000000C0201010101020C0000000120A07D9
:1054B000027F02070A120000000B0A0A0A7F0A0A8A
:1054C0000A0B0000000000000000000000000000C7
:1054D00000000000000000000000000000000000CC
:1054E00000000000000000000000000000000000BC
:1054F00000000000000000000000000000000000AC
:10550000000000000000000000000000000000009B
:1055100000000000000000001F2040404050205FBD
:1055200080001F2040404050205F8000488048801D
:10553000548064904490FDF04680648050804880A0
:105540004880000040904F9048A0E8A048C05F808D
:1055500048C0E8A048A04F904090000021102120B2
:10556000220024202810FF8028202410220021203F
:10557000211000003031323334353637383941426A
:1055800043444546403058003031323334353637A5
:105590003839616263646566403078000400000851
:1055A00000000000000000020001000010000000E8
:1055B0003F000000646563006964000072756E74EA
:1055C000696D650068656C70000000006C6973743B
:1055D0000000000068657800766F69642077726962
:1055E00074655F616464722875333220616464722B
:1055F0002C7533322076616C29000000753332201F
:10560000726561645F61646472287533322061641D
:1056100064722900766F69642064656C61795F6DDE
:105620007328753136206E6D73290000766F6964BA
:105630002064656C61795F757328753332206E75EF
:105640007329000064560008000000204401000097
:105650006C010008B456000844010020A40B0000AF
:10566000C8010008110410A24A0413B0551B08C455
:10567000041ACC041AB8041AD4041AB4041ABC04C8
:1056800013C1271B08FC081351391B08D80813DD68
:1056900026140814561B08F5081A2C08223014206A
:1056A000C12F140801281B08B1041335301A0861F2
:0456B00002DC010017
:0400000508000131BD
:00000001FF
