:020000040800F2
:10000000080F00202D020008E51D0008A31B0008B2
:10001000E11D000829070008C525000800000000B0
:100020000000000000000000000000007720000831
:100030002D0700080000000075200008CF200008F0
:10004000470200084702000847020008470200086C
:10005000470200084702000847020008470200085C
:10006000470200084702000847020008470200084C
:10007000470200084702000847020008470200083C
:10008000470200084702000847020008470200082C
:10009000470200084702000847020008470200081C
:1000A000470200084702000847020008470200080C
:1000B00047020008470200083121000847020008F3
:1000C00047020008470200084702000847020008EC
:1000D000470200088525000847020008470200087B
:1000E00047020008470200084702000847020008CC
:1000F00047020008470200084702000847020008BC
:1001000047020008470200084702000847020008AB
:10011000470200084702000847020008470200089B
:10012000470200084702000847020008470200088B
:1001300000F002F800F06BF80AA090E8000C82448E
:100140008344AAF10107DA4501D100F060F8AFF26B
:10015000090EBAE80F0013F0010F18BFFB1A43F0A5
:1001600001031847E4390000043A00000A444FF044
:10017000000C10F8013B13F0070408BF10F8014B06
:100180001D1108BF10F8015B641E05D010F8016B4B
:10019000641E01F8016BF9D113F0080F1EBF10F8AF
:1001A000014BAD1C0C1B09D16D1E58BF01F801CBD2
:1001B000FAD505E014F8016B01F8016B6D1EF9D555
:1001C0009142D6D37047000000230024002500266A
:1001D000103A28BF78C1FBD8520728BF30C148BFAA
:1001E0000B607047642900F09F80752900F09C80A7
:1001F000782900F0D580632900F02982732900F066
:100200002E82002070471FB51FBD10B510BD00F035
:1002100059FA1146FFF7F7FF02F054FA00F077FAA7
:1002200003B4FFF7F2FF03BC02F001FA094880476C
:1002300009480047FEE7FEE7FEE7FEE7FEE7FEE7C8
:10024000FEE7FEE7FEE7FEE704480549054A064BE0
:1002500070470000D920000831010008080900207B
:10026000080F0020080B0020080B0020704700003A
:100270000FB4044910B503AA029800F0F5F910BCB8
:100280005DF814FB0C00002070B504468569006819
:10029000C10601D5302600E02026C00707D070BD7A
:1002A000D4E9012130469047206A401C20626D1E2F
:1002B000F6D570BD70B5044685690078C00707D1D2
:1002C00070BDD4E9012120209047206A401C2062A3
:1002D0006D1EF6D570BD70B50C460546012A05D0D9
:1002E0002878800600D5EA69002302E0012305E0B2
:1002F0005B1C934202D2E05C0028F9D1A869E618A1
:10030000C01AA861286A184428622846FFF7BCFF73
:1003100004E0D5E9012114F8010B9047B442F8D369
:100320002846FFF7C7FF70BD2DE9F04106460024BF
:1003300010687529314616A510D0AFF3008000284B
:1003400002DA404213A507E031688A0701D512A5F9
:1003500002E0490704D511A5012401E0AFF30080B4
:1003600000210A2206F1240709E0B0FBF2FCB0FBF1
:10037000F2F302FB1C00303078541846491C002868
:10038000F3D123462A463046BDE8F04100F0FCB8E0
:10039000000000002D0000002B00000020000000E5
:1003A00070B504460D4621461068AFF300802188E1
:1003B000090502D50F4A7A4402E00E4A7A440E3209
:1003C000002104F1240305E000F00F060009965D0A
:1003D0005E54491C0028F7D120780023000704D57B
:1003E000702D02D009B1022311322046BDE87040C1
:1003F00000F0CAB8BE3600002DE9F05F8946044619
:100400004FF0000ADFF874B1FB44C0F820A020468A
:10041000E1688847002874D0252806D0D4E9012156
:100420009047206A401C2062F1E700265F46204684
:10043000E16888472028054607DB312D05D2781969
:1004400010F8200C08B10643F1E7B00701D526F0FB
:100450000406C4F81CA00027C4F818A02A2D09D04F
:10046000284602F0DDF838B304EB8708303DC8F8C1
:10047000185019E059F8041B204604EB87029161DB
:10048000E1688847012F054618D1E069002820DA85
:1004900026F020061DE0D8F8180000EB800005EBE0
:1004A00040003038C8F818002046E1688847054603
:1004B00002F0B6F80028EED1012F0AD02E2D08D177
:1004C0002046E16888477F1C0546022F46F020063B
:1004D000C4DBA069002803DA404246F00106A061AF
:1004E000F00701D026F010066C2D0BD0682D09D036
:1004F0004C2D39D06A2D35D0742D35D07A2D33D08E
:1005000016E038E0E1682F4620468847B8420546A5
:1005100009D16C2F26D04FF48060E1680643204655
:100520008847054604E06C2F1AD04FF480700643CC
:100530000DB3A5F14100192802D8203546F4006614
:100540004A462946204626604E46FFF74BFE80B1BC
:1005500001280BD0F61D26F0070000F1080956E728
:100560004020E4E78020D8E70020D6E706F1040920
:100570004DE7284652E7206ABDE8F09F9436000018
:1005800070477047704770472DE9F0470D46994610
:100590009246044600F124080168880604D5E06903
:1005A00021F01001216000E00120A84201DD471B7D
:1005B00000E00027A1697A1902EB0900081AA0617E
:1005C0002078C00602D42046FFF75EFE002608E031
:1005D000D4E901211AF806009047206A401C761CD5
:1005E00020624E45F4DB2078C0060AD52046FFF78E
:1005F0004BFE06E0D4E9012130209047206A401CE0
:100600002062381EA7F10107F4DC07E0D4E90121DC
:1006100018F805009047206A401C2062281EA5F1AA
:100620000105F3DC2046FFF745FE2078000602D5E1
:100630000220BDE8F0870120FBE710B5436913B144
:10064000AFF3008001E0FFF746FE012010BD1278F5
:1006500000F124010A7000224A700122EDE71168BE
:100660004FF0FF32E9E70000074B70B50D467B44C1
:1006700000F011F80446284600F020F810B14FF0C1
:10068000FF3070BD204670BD3720000001694A1C54
:1006900002610878704700B58FB0CDE901310021C3
:1006A000059105497944CDE9031011466846FFF7E5
:1006B000A3FE0FB000BD0000E5FFFFFF007B00F0D0
:1006C00080007047754600F02BF8AE46050069467D
:1006D000534620F00700854618B020B5FFF7B4FD5B
:1006E000BDE820404FF000064FF000074FF0000833
:1006F0004FF0000B21F00701AC46ACE8C009ACE8B4
:10070000C009ACE8C009ACE8C0098D46704710B517
:100710000446AFF300802046BDE81040FFF780BDDF
:1007200000487047A808002000BFFEE7704731B5B9
:10073000002400F0AFF9044600BF00F0ABF9001B45
:1007400000998842F9D338BD2DE9F84702460024C4
:10075000002000258446002700237BE14FF001089C
:1007600008FA03F4D1F8008008EA0400A0427DD121
:10077000DFF8ECA2D1F80480A8EB0A09D0453AD002
:1007800014DCB8F1030F50D009DCB8F1000F31D000
:10079000B8F1010F1CD0B8F1020F49D120E0B8F137
:1007A000110F18D0B8F1120F42D11EE0B9F5881F11
:1007B00025D006DCB9F5803F20D0B9F5801F37D1B0
:1007C0001AE0B9F5001F18D0B9F5041F30D117E0B1
:1007D000D1F80CC02DE0D1F80C8008F1040C28E011
:1007E000D1F80C8008F1080C23E0D1F80C8008F156
:1007F0000C0C1EE000BF00BF00BF00BF00BF00BF69
:10080000D1F80880B8F1000F02D14FF0040C0BE0D2
:10081000D1F80880B8F1010F03D14FF0080C146132
:1008200002E04FF0080C546103E04FF0000C00E0D0
:1008300000BF00BFFF2801D8904601E002F1040884
:100840004646FF2802D84FEA830803E0A3F10808D0
:100850004FEA88084746D6F800804FF00F0909FA9A
:1008600007F928EA09080CFA07F900E07AE048EAF3
:100870000908C6F80080D1F8048008F08058B8F163
:10088000805F6FD100BFDFF8DC81D8F8188048F0B6
:100890000108DFF8D091C9F81880C846D8F8188048
:1008A00008F00108CDF8008000BF00BF4FEAB9385A
:1008B0004FEA930958F829504FEA83784FEA18799C
:1008C0004FF00F0808FA09F825EA0805DFF89881C3
:1008D000424502D14FF0000824E0DFF89081424504
:1008E00002D14FF001081DE0DFF88481424502D1BA
:1008F0004FF0020816E0DFF87C81424502D14FF04C
:1009000003080FE0DFF87081424502D14FF0040880
:1009100008E0DFF86881424502D14FF0050801E0A8
:100920004FF006084FEA83794FEA197908FA09F877
:1009300048EA0505DFF848814FEA930948F829504D
:10094000D1F8048008F48038B8F5803F0BD1DFF887
:100950003481D8F8008048EA0008DFF82891C9F807
:1009600000800AE075E0DFF81C81D8F8008028EAF2
:100970000008DFF81091C9F80080D1F8048008F46D
:100980000038B8F5003F0ED1DFF8F88008F1040810
:10099000D8F8008048EA0008DFF8E89009F1040977
:1009A000C9F800800DE0DFF8DC8008F10408D8F811
:1009B000008028EA0008DFF8CC9009F10409C9F8A2
:1009C0000080D1F8048008F48018B8F5801F0ED19B
:1009D000DFF8B08008F10808D8F8008048EA00087D
:1009E000DFF8A09009F10809C9F800800DE0DFF8F0
:1009F000948008F10808D8F8008028EA0008DFF899
:100A0000849009F10809C9F80080D1F8048008F43D
:100A10000018B8F5001F0ED1DFF8688008F10C0847
:100A2000D8F8008048EA0008DFF8589009F10C096E
:100A3000C9F800800DE0DFF84C8008F10C08D8F808
:100A4000008028EA0008DFF83C9009F10C09C9F899
:100A500000805B1C102BFFF481AEBDE8F88700001E
:100A6000000011100010024000080140000C01407D
:100A7000001001400014014000180140001C01401A
:100A800008000140000401400AB1016101E00B04CB
:100A900003617047014800687047000004000020AF
:100AA00002480068401C01490860704704000020AB
:100AB00010B50848006840F010000649086005209D
:100AC00000F068F80F2000F007F800F017F8002099
:100AD00010BD00000020024070B5044600F0BAF9D5
:100AE0004FF47A71B0FBF1F5284600F08FFE00223A
:100AF0002146501E00F010F8002070BD704700BF66
:100B000000F01F02012191404209920002F1E0220F
:100B1000C2F8001100BF70472DE9F05F80460D4616
:100B20001646002701F060F9074639462A46334643
:100B300001F00700C0F1070ABAF1040F02D94FF023
:100B4000040A01E0C0F1070AD14600F1040ABAF133
:100B5000070F02D24FF0000A01E0A0F1030AD446C9
:100B60004FF0010A0AFA09FAAAF1010A0AEA020A8E
:100B70000AFA0CFA4FF0010B0BFA0CFBABF1010B6C
:100B80000BEA030B4AEA0B042146404601F034F914
:100B9000BDE8F09F00BF00F00702064B19684FF652
:100BA000FF031940044B0B4343EA0221014B196038
:100BB00000BF70470CED00E00000FA0570B5044678
:100BC0000D4600269F48006800F00700A8420ED29C
:100BD0009C48006820F0070028439A4908600846AE
:100BE000006800F00700A84201D0012070BD207805
:100BF00000F00200022807D19348406820F0F0007E
:100C0000A168084390494860207800F0010000285E
:100C10007CD0606801282DD12020010391FAA1F138
:100C2000B1FA81F108430121B1EB601F02D186487E
:100C300000680FE02020010391FAA1F1B1FA81F1DF
:100C400008430221B1EB601F02D17F48006A01E036
:100C50007D48406A20210A0392FAA2F2B2FA82F297
:100C6000114301F01F02012191400840002860D18A
:100C70000120BBE7606802282CD12020010591FAF1
:100C8000A1F1B1FA81F108430121B1EB601F02D15A
:100C90006D4800680FE02020010591FAA1F1B1FA3A
:100CA00081F108430221B1EB601F02D16648006A5E
:100CB00001E06548406A20210A0592FAA2F2B2FAE0
:100CC00082F2114301F01F0201219140084078BBDC
:100CD00001208BE72020022191FAA1F1B1FA81F1E4
:100CE00008430121B1EB601F02D15748006810E0B2
:100CF0002020022191FAA1F1B1FA81F108430221E9
:100D0000B1EB601F03D15048006A02E054E04E4846
:100D1000406A2021022292FAA2F2B2FA82F2114330
:100D200001F01F0201219140084008B901205DE750
:100D3000FFE74548406820F00300616808434249E6
:100D40004860FFF7A7FE06466068012810D108E05A
:100D5000FFF7A0FE801B41F28831884201D90320B1
:100D600044E73948406800F00C000428F0D123E043
:100D70006068022810D108E0FFF78CFE801B41F26A
:100D80008831884201D9032030E72F48406800F0BD
:100D90000C000828F0D10FE008E0FFF77BFE801B75
:100DA00041F28831884201D903201FE72648406874
:100DB00000F00C000028F0D12248006800F0070085
:100DC000A8420ED91F48006820F0070028431D499B
:100DD00008600846006800F00700A84201D0012022
:100DE00004E7207800F00400042807D11648406882
:100DF00020F4E060E168084313494860207800F07F
:100E00000800082808D11048406820F46050216983
:100E100040EAC1000C49486000F04EF80A494968B0
:100E200001F0F001F02292FAA2F2B2FA82F2D1407D
:100E3000064A515CC840064908600F20FFF74CFE87
:100E40000020D3E60020024000100240603A000873
:100E500000000020014800687047000000000020EA
:100E600000B5FFF7F7FF0749496801F4E0614FF467
:100E7000E06292FAA2F2B2FA82F2D140024A515CE6
:100E8000C84000BD00100240703A000800B5FFF7EE
:100E9000E1FF0749496801F460514FF4605292FA4A
:100EA000A2F2B2FA82F2D140024A515CC84000BDBF
:100EB00000100240703A0008F0B585B00FF28C0CBB
:100EC0009CE8E01001A8A0E8E01024A52D6800959A
:100ED00000210024002200230020214D696801F038
:100EE0000C056DB3042D02D0082D28D101E01D485A
:100EF00028E001F470154FF4701696FAA6F6B6FACB
:100F000086F6F54001AE735D01F4803595B1144D60
:100F10006D6805F400354FF4003696FAA6F6B6FA79
:100F200086F6F5401DF805400E4DB5FBF4F505FBC2
:100F300003F202E00C4D03FB05F2104602E000BF95
:100F4000084800BF00BF05B0F0BD00000203040563
:100F5000060708090A0B0C0D0E0F10100102000005
:100F60000010024000127A0000093D0038B5044626
:100F70000025207800F0010000287CD0F848406867
:100F800000F00C0004280CD0F548406800F00C007C
:100F9000082837D1F248406800F48030B0F5803F2F
:100FA00030D12020010391FAA1F1B1FA81F1084377
:100FB0000121B1EB601F02D1E94800680FE0202059
:100FC000010391FAA1F1B1FA81F108430221B1EBD9
:100FD000601F02D1E248006A01E0E148406A202136
:100FE0000A0392FAA2F2B2FA82F2114301F01F024E
:100FF0000121914008400028BFD0606800283AD104
:10100000012038BD00BF6068B0F5803F06D1D448EC
:10101000006840F48030D249086028E0606858B920
:10102000CF48006820F48030CD4908600846006849
:1010300020F4802008601AE06068B0F5A02F0BD182
:10104000C748006840F48020C54908600846006829
:1010500040F4803008600AE0C148006820F4803025
:10106000BF4908600846006820F48020086000BF7F
:101070006068C8B300E06FE0FFF70CFD054606E0CE
:10108000FFF708FD401B642801D90320B9E72020A1
:10109000010391FAA1F1B1FA81F108430121B1EB09
:1010A000601F02D1AE4800680FE02020010391FAD2
:1010B000A1F1B1FA81F108430221B1EB601F02D125
:1010C000A748006A01E0A648406A20210A0392FA74
:1010D000A2F2B2FA82F2114301F01F020121914003
:1010E00008400028CCD037E0FFE7FFF7D3FC0546E7
:1010F00006E0FFF7CFFC401B642801D9032080E7FE
:101100002020010391FAA1F1B1FA81F108430121F4
:10111000B1EB601F02D1924800680FE0202001036C
:1011200091FAA1F1B1FA81F108430221B1EB601FFC
:1011300002D18B48006A01E08948406A20210A03F5
:1011400092FAA2F2B2FA82F2114301F01F020121D7
:10115000914008400028CCD1207800F002000228FD
:101160004ED17F48406800F00C0050B17C48406888
:1011700000F00C00082844D17948406800F4803021
:1011800078BB2020022191FAA1F1B1FA81F1084344
:101190000121B1EB601F02D1714800680FE02020EF
:1011A000022191FAA1F1B1FA81F108430221B1EBD8
:1011B000601F02D16A48006A01E06948406A202144
:1011C000022292FAA2F2B2FA82F2114301F01F0255
:1011D00001219140084028B12069012802D0012056
:1011E0000FE70EE05E48006820F0F800F82292FA5F
:1011F000A2F2B2FA82F2616991400843584908604C
:1012000091E02069F0B3012090FAA0F1B1FA81F1E8
:10121000544A42F82100FFF73DFC054606E0FFF77F
:1012200039FC401B022801D90320EAE620200221D4
:1012300091FAA1F1B1FA81F108430121B1EB601FEC
:1012400002D1474800680FE02020022191FAA1F165
:10125000B1FA81F108430221B1EB601F02D140488D
:10126000006A01E03E48406A2021022292FAA2F27E
:10127000B2FA82F2114301F01F02012191400840AD
:10128000002800E00FE0CAD03548006820F0F800E0
:10129000F82292FAA2F2B2FA82F26169914008430E
:1012A0002F4908603FE00020012191FAA1F1B1FA35
:1012B00081F12C4A42F82100FFF7ECFB054606E0DD
:1012C000FFF7E8FB401B022801D9032099E6202004
:1012D000022191FAA1F1B1FA81F108430121B1EBA8
:1012E000601F02D11E4800680FE02020022191FA01
:1012F000A1F1B1FA81F108430221B1EB601F02D1E3
:101300001748006A01E01648406A2021022292FA3A
:10131000A2F2B2FA82F2114301F01F0201219140C0
:1013200008400028CCD1207800F0080008284BD1D4
:10133000A069A8B3012191FAA1F0B0FA80F0094A9E
:1013400002EB8000C0F88014FFF7A4FB05460BE019
:10135000FFF7A0FB401B022806D9032051E600003E
:1013600000100240000042426020022191FAA1F1E7
:10137000B1FA81F108430121B1EB601F02D1F948B4
:10138000006810E06020022191FAA1F1B1FA81F128
:1013900008430221B1EB601F03D1F248006A02E06A
:1013A00013E0F048406A6021022292FAA2F2B2FAF7
:1013B00082F2114301F01F020121914008400028F0
:1013C000C6D00120FFF7B3F941E00020012191FAD6
:1013D000A1F1B1FA81F1E44A02EB8101C1F8800484
:1013E000FFF758FB054606E0FFF754FB401B0228B9
:1013F00001D9032005E66020022191FAA1F1B1FA9A
:1014000081F108430121B1EB601F02D1D54800688A
:101410000FE06020022191FAA1F1B1FA81F10843B5
:101420000221B1EB601F02D1CE48006A01E0CD4835
:10143000406A6021022292FAA2F2B2FA82F21143C9
:1014400001F01F020121914008400028CCD12078F2
:1014500000F00400042875D100BFC248C06940F004
:101460008050C049C8610846C06900F080500090B3
:1014700000BF00BFBD48006840F48070BB490860F1
:10148000FFF708FB054606E0FFF704FB401B642856
:1014900001D90320B5E5B548006800F48070002844
:1014A000F2D000BFE068012806D1AE48006A40F0E3
:1014B0000100AC49086227E0E06858B9A948006A11
:1014C00020F00100A74908620846006A20F00400E5
:1014D000086219E0E06805280BD1A248006A40F0D4
:1014E0000400A04908620846006A40F00100086252
:1014F0000AE09C48006A20F001009A490862084608
:10150000006A20F00400086200BFE068D0B3FFF773
:10151000C1FA054608E0FFF7BDFA401B41F28831E9
:10152000884201D903206CE54020022191FAA1F103
:10153000B1FA81F108430121B1EB601F03D1894861
:10154000006810E058E04020022191FAA1F1B1FAC0
:1015500081F108430221B1EB601F02D18148006A8A
:1015600001E08048406A4021022292FAA2F2B2FAD7
:1015700082F2114301F01F0201219140084000282E
:10158000C9D039E0FFE7FFF785FA054608E0FFF725
:1015900081FA401B41F28831884201D9032030E5AD
:1015A0004020022191FAA1F1B1FA81F10843012111
:1015B000B1EB601F02D16B4800680FE040200221B0
:1015C00091FAA1F1B1FA81F108430221B1EB601F58
:1015D00002D16448006A01E06248406A4021022268
:1015E00092FAA2F2B2FA82F2114301F01F02012133
:1015F000914008400028CAD1E069002873D05948BA
:10160000406800F00C0008286ED0E06902286CD118
:1016100000204FF0807191FAA1F1B1FA81F1524AA4
:1016200042F82100FFF736FA054606E0FFF732FAE6
:10163000401B022801D90320E3E42020010591FA90
:10164000A1F1B1FA81F108430121B1EB601F02D190
:10165000444800680FE02020010591FAA1F1B1FA99
:1016600081F108430221B1EB601F02D13D48006ABD
:1016700001E03C48406A20210A0592FAA2F2B2FA3F
:1016800082F2114301F01F0201219140084000281D
:10169000CCD1206AB0F5803F07D13248406820F4B1
:1016A0000030A16808432F494860D4E90801084385
:1016B0002C49496821F4741108432A4948600121E2
:1016C000080690FAA0F0B0FA80F0274A42F82010FD
:1016D000FFF7E0F9054609E0FFF7DCF9401B0228B7
:1016E00004D903208DE479E076E02CE02020010588
:1016F00091FAA1F1B1FA81F108430121B1EB601F28
:1017000002D1184800680FE02020010591FAA1F1EC
:10171000B1FA81F108430221B1EB601F02D11148F7
:10172000006A01E00F48406A20210A0592FAA2F2FD
:10173000B2FA82F2114301F01F02012191400840E8
:101740000028C9D04AE000204FF0807191FAA1F141
:10175000B1FA81F1044A42F82100FFF79BF90546EE
:101760000DE0000000100240000042420070004006
:10177000FFF790F9401B022801D9032041E4202003
:10178000010591FAA1F1B1FA81F108430121B1EB10
:10179000601F02D1124800680FE02020010591FA75
:1017A000A1F1B1FA81F108430221B1EB601F02D12E
:1017B0000B48006A01E00A48406A20210A0592FAB3
:1017C000A2F2B2FA82F2114301F01F02012191400C
:1017D00008400028CCD101E0012012E4002010E4F0
:1017E00000100240042808D14FF0E021096941F0BF
:1017F00004014FF0E022116107E04FF0E021096998
:1018000021F004014FF0E0221161704770B50446E9
:101810002546681EB0F1807F01D301200FE0681ECD
:101820004FF0E02148610F214FF0FF3000F0E4FA63
:1018300000204FF0E021886107200861002070BD82
:1018400010B504460CB9012010BD94F8390028B930
:10185000002084F83800204600F00CF8022084F8BC
:101860003900211D206800F085FC012084F8390032
:101870000020E9E7704701460868C06840F00100B1
:101880000A68D0600868006840F001000A681060CB
:10189000002070477047014691F839007047F8B54D
:1018A0000446002500262068006800F00105206835
:1018B000C06800F4807625B11EB1E06B40F00100F5
:1018C000E06320680068C0F340052068406900F0CC
:1018D000010625B11EB1E06B40F00400E063206812
:1018E0000068C0F3800525B11EB1E06B40F0020036
:1018F000E06320680068C0F3C00525B11EB1E06B4D
:1019000040F00800E06320680068C0F340152068DC
:10191000C06800F020061DB116B1204600F0B8FCEA
:1019200020680068C0F3C0152068C06800F0800619
:101930001DB116B1204600F0EDFD20680068C0F32F
:1019400080152068C06800F040061DB116B1204621
:1019500000F086FCE06B70B100BF2068006800906A
:1019600020684068009000BF00BF012084F8390063
:101970002046FFF78FFFF8BD10B504460CB90120D3
:1019800010BDA06900B100E000BF94F8390028B98B
:10199000002084F83800204600F026F8022084F861
:1019A00039002068C06820F400502168C8602046D3
:1019B00000F0CCFC2068006920F4904021680861A8
:1019C0002068406920F02A00216848612068C068CA
:1019D00040F400502168C8600020E063012084F8D2
:1019E00039000020CCE7000010B586B00446254938
:1019F0002068884244D100BF2348806940F0040039
:101A0000214988610846806900F00400019000BF08
:101A100000BF00BF0846806940F4804088610846E6
:101A2000806900F48040019000BF00BF00BF0846FD
:101A3000806940F0010088610846806900F001007B
:101A4000019000BF00BF48150290022003900120C2
:101A500004900320059002A90C48FEF775FE4FF490
:101A6000806002900020039002A90848FEF76CFEF7
:101A70002520FFF744F8032211462520FFF74CF8F4
:101A800006B010BD003801400010024000080140BF
:101A900030B50346002493F83940012C01D0122CB4
:101AA00037D101B10AB9012030BD00BF93F8380029
:101AB000012801D10220F7E7012083F8380000BF98
:101AC00099629A85DA850020D86393F83900122844
:101AD00003D1322083F8390002E0222083F8390054
:101AE00000BF002083F8380000BF1868C06840F4C9
:101AF00080701D68E8601868406940F001001D684A
:101B000068611868C06840F020001D68E860002027
:101B1000CAE70220C8E700001D4A0168914236D199
:101B20001C49098801F4004189BB1A49098801F45C
:101B3000804171B1184909780A2903D00021154A5A
:101B4000118024E01349098841F40041114A1180B1
:101B50001DE0114909780D2906D10E49098841F483
:101B600080410C4A118012E00B490978094A128819
:101B7000C2F30D02094B995406490988491C054ACC
:101B8000118011460988C72901DD002111807047A5
:101B900000380140100000201200002064030020E3
:101BA000704700BFFEE7000000B585B000BF1048D9
:101BB000806940F008000E4988610846806900F09D
:101BC0000800009000BF00BFC020019001200290DB
:101BD00003900320049001A90648FEF7B5FD0120FB
:101BE000054908600549C1F8980105B000BD00002D
:101BF00000100240000C01409C81214200802142E3
:101C000070B504461548006820F07040134908601C
:101C10000846006840F04050086000201049086005
:101C2000002517E0E0090E49091D08606006040E52
:101C3000022000F015FD01200A49C1F89801022098
:101C400000F00EFD002006490860022000F008FDAB
:101C5000681CC5B2082DE5DB70BD0000000C01401A
:101C6000988121420080214210B50F48006820F081
:101C700070400D4908600846006840F04050086018
:101C800001200A4908600A49C1F89801042000F0BF
:101C9000E7FC002005490860042000F0E1FC00207A
:101CA0000349C1F8980110BD000C01409C812142FC
:101CB0000080214210B50F48006820F070400D49A7
:101CC00008600846006840F04050086000200A495B
:101CD00008600A49C1F89C01042000F0C1FC012001
:101CE000054908600549C1F89C01042000F0B8FCD2
:101CF00010BD0000000C014098812142008021426B
:101D000010B500241448006820F0704012490860A3
:101D10000846006840F00040086001200F49086054
:101D200000F09EFC01200E49C1F8980100F098FCDB
:101D300007E0601CC4B2FA2C03DDFFF7BBFF0120F3
:101D400010BD0648803800680028F2D10349091FF9
:101D5000086000BFF4E70000000C01409C812142B4
:101D60000080214200B585B000BF1A48806940F06C
:101D70000100184988610846806900F00100009060
:101D800000BF00BF00BF0846806940F004008861C2
:101D90000846806900F00400009000BF00BF0E48B4
:101DA000406820F0E06040F000700B4948604FF45C
:101DB000004001900120029003900320049001A9AB
:101DC0000648FEF7C1FC0122D1030448FEF75CFE81
:101DD00005B000BD001002400000014000080140B5
:101DE00000BFFEE77047000002480068C0F3022011
:101DF000704700000CED00E010B5002807DA0A0774
:101E0000140E054A00F00F031B1FD45403E00A0709
:101E1000130E024A135410BD18ED00E000E400E078
:101E200070B500240CE0002506E00020074901EB16
:101E3000C5010855681CC5B2802DF6DB601CC4B214
:101E4000082CF0DB00F094F870BD00006C0400205A
:101E5000F0B5144600257F2801DC3F2900DDF0BDE8
:101E60000B46CF1701EB5777FF10C7F10707FAB200
:101E7000CF1701EB5777FF10A1EBC707FEB2C6F1F2
:101E800007070123BB40DDB274B1C0F17F030E4FE1
:101E900007EBC3039B5C2B43C0F17F07DFF828C02F
:101EA0000CEBC707BB540DE0C0F17F03064F07EBF7
:101EB000C3039B5CAB43C0F17F07DFF80CC00CEBA6
:101EC000C707BB5400BFCAE76C04002010B56420EC
:101ED00000F0BAFBAE2000F077FBD52000F074FBD9
:101EE000502000F071FBA82000F06EFB3F2000F0B6
:101EF0006BFBD32000F068FB002000F065FB402066
:101F000000F062FB8D2000F05FFB142000F05CFB12
:101F1000202000F059FB022000F056FBA12000F029
:101F200053FBC82000F050FBDA2000F04DFB1220DC
:101F300000F04AFB812000F047FBEF2000F044FB5B
:101F4000D92000F041FBF12000F03EFBDB2000F047
:101F50003BFB302000F038FBA42000F035FBA6202E
:101F600000F032FBAF2000F02FFBFFF759FF10BD50
:101F700070B5002418E004F1B001C8B200F024FBF1
:101F8000002000F021FB102000F01EFB002507E0E0
:101F9000074901EBC501085D00F02CFB681CC5B2C8
:101FA000802DF5DB601CC4B2082CE4DB70BD0000A2
:101FB0006C0400202DE9FF4F05460E4690461C4656
:101FC0004FF0000A029501962046E11704EB51718B
:101FD000C1F3C701009142E008FB04F0C11700EB18
:101FE00051710AEBE101C9B203910AF1010000F05D
:101FF000FF0A002731E0102C05D11D49039801EBA1
:10200000001010F807B04FF0000915E00BF00100C8
:1020100028B1012231462846FFF71AFF04E00022CA
:1020200031462846FFF714FF4FEA6B0B701CC6B20F
:1020300009F1010000F0FF09B9F1080FE6DB681CA7
:10204000C5B20298281AA04204D1029D0198083016
:10205000C0B20190019E781CC7B2A742CBDB0098AA
:10206000411EC9B200910028B6D1BDE8FF8F000023
:10207000130000207047704730B58FB0054600242C
:1020800001200590000406900020079002200C908B
:10209000C1030D910E9505A8FEF768FF04460CB12B
:1020A00000BFFEE70F200090022001900020029068
:1020B0004FF4806003900020049002216846FEF7F0
:1020C0007DFD04460CB100BFFEE70FB030BD10B57A
:1020D000FEF7E6FC10BD00001148006840F001006A
:1020E0000F490860084640680E4908400C4948609E
:1020F000084600680C49084009490860084600681D
:1021000020F4802008600846406820F4FE00486003
:102110004FF41F008860C80304490860704700003E
:10212000001002400000FFF8FFFFF6FE08ED00E09F
:1021300010B50E480068C06800F0010078B10C4985
:1021400008698047002009490968486200BF642087
:1021500006490968C86264210448C16000BF6FF085
:10216000010002490968086110BD00006C080020E8
:1021700070020020002202681D4B98420ED01D4BB9
:1021800098420BD0B0F1804F08D01B4B984205D03D
:102190001A4B984202D01A4B984203D122F0700297
:1021A0004B681A43124B98420ED0124B98420BD0F8
:1021B000B0F1804F08D0104B984205D00F4B984299
:1021C00002D00F4B984203D122F44072CB681A43DD
:1021D00002608B68C3620B688362054B984202D031
:1021E000044B984201D10B6903630123436170479B
:1021F000002C014000340140000400400008004071
:10220000000C004038B504460D4600BF1148C069B7
:1022100040F004000F49C8610846C06900F004009E
:10222000009000BF00BF032211461E20FEF774FC81
:102230001E20FEF764FC084808490860084645600F
:1022400000218160C4600161FFF7FAFA0348FFF7DB
:1022500012FB38BD00100240000800406C0800204E
:1022600010B504462068C06820F040002168C860AE
:1022700094F83900322803D1222084F8390002E092
:10228000012084F839002046FFF78AFC002010BDA9
:1022900070B50446002694F83960222E01D0322E03
:1022A00052D1A068B0F5805F13D1A56A206940B90A
:1022B00020684068C0F308002880A06A801CA062E3
:1022C00019E020684068C0B22880A06A401CA06263
:1022D00011E0206938B920684068C1B2A26A501C78
:1022E000A062117007E02068406800F07F01A26AD8
:1022F000501CA0621170E08D401E80B2E08508BBCA
:102300002068C06820F020002168C86094F8390077
:10231000322803D1122084F839000EE02068C0680A
:1023200020F480702168C8602068406920F00100B6
:1023300021684861012084F839002046FFF7ECFB52
:10234000002070BD0020FCE70220FAE72DE9F041F3
:10235000044600252068006920F44050E1680843E5
:10236000216808612169A0680843616940EA0105A4
:102370002068C06841F20C61884328432168C86026
:102380002068406920F44070A169084321684861D1
:102390005F49206888425CD1FEF778FD00EBC00100
:1023A00001EB001061688900B0FBF1F6FEF76EFDED
:1023B00000EBC00101EB001061688900B0FBF1F097
:1023C0006421B0FBF1F000EBC00101EB0010A6EBC3
:1023D0008000322101EB00106421B0FBF1F000F02D
:1023E000F006FEF753FD00EBC00101EB0010616841
:1023F0008900B0FBF1F06421B0FBF1F006EB0016B0
:10240000FEF744FD00EBC00101EB0010616889009C
:10241000B0FBF1F7FEF73AFD00EBC00101EB001055
:1024200061688900B0FBF1F06421B0FBF1F000EBD2
:10243000C00101EB0010A7EB8000322101EB00107E
:102440006421B0FBF1F000F00F0030442168886097
:102450005BE0FEF705FD00EBC00101EB00106168D9
:102460008900B0FBF1F6FEF7FBFC00EBC00101EBCD
:10247000001061688900B0FBF1F06421B0FBF1F05D
:1024800000EBC00101EB0010A6EB8000322101EB54
:1024900000106421B0FBF1F000F0F006FEF7E0FC64
:1024A00000EBC00101EB001061688900B0FBF1F0A6
:1024B0006421B0FBF1F006EB0016FEF7D1FC00EB57
:1024C000C00101EB001061688900B0FBF1F7FEF775
:1024D000C7FC00EBC00101EB001061688900B0FB94
:1024E000F1F06421B0FBF1F000EBC00101EB001052
:1024F000A7EB8000322101EB00106421B0FBF1F06A
:1025000000F00F00304421688860BDE8F0810000D1
:102510000038014010B50146002391F83930122BE4
:1025200001D0322B2CD18868B0F5805F0FD10A6AB8
:102530001088C0F308000C686060086918B9086A60
:10254000801C086209E0086A401C086205E00C6A09
:10255000601C086220780C686060C88C401E80B2E5
:10256000C88458B90868C06820F080000C68E06032
:102570000868C06840F040000C68E060002010BDB2
:102580000220FCE710B500240C48FFF788F900BFD3
:1025900001E0641C00BF0948FFF77DF90128F8D16C
:1025A00000BF002401E0641C00BF0122044903486D
:1025B000FFF76EFA0028F6D100BF10BD2C040020F2
:1025C0001200002000BFFEE710B50446FFF74CFBE9
:1025D0007820FFF715FBFFF793FB0020FFF710FBB8
:1025E000FFF78EFB2046FFF70BFBFFF789FBFFF79A
:1025F00061FB10BD10B50446FFF736FB7820FFF7EE
:10260000FFFAFFF77DFB4020FFF7FAFAFFF778FBB0
:102610002046FFF7F5FAFFF773FBFFF74BFB10BD02
:1026200030380A2801D2012070470020704700BFCF
:102630007047000010B504460420FFF7D3F80148A6
:10264000046010BD0800002030B50446002504E0F9
:102650004FF47A7000F004F86D1CA542F8D330BD39
:1026600070B5034600224FF0E02675690D4E3668BE
:1026700003FB06F44FF0E026B16910E04FF0E026CE
:10268000B06988420BD0884202D20E1A324402E06E
:102690002E1A0E4432440146A24200D300E0EDE778
:1026A00000BF70BD0800002000BF054A126802F09C
:1026B0004002002AF9D0C2B2014B1B1D1A607047BC
:1026C0000038014000BFFEF7F3F94FF48010FFF728
:1026D000D3FC4820FFF7AEFF4FF4E13000F0CEF816
:1026E000FFF740FBFFF760FAFFF7F0FB0121084618
:1026F00000F010F807E00448006808B9012000E085
:10270000002001490860F6E7BC0121420146086843
:102710007047000070B58CB005460E46564B0FCB87
:1027200008AC0FC4FFF77CFB00240AE0E0B20122F2
:102730000021FFF78DFBE0B201223F21FFF788FB6C
:10274000641C802CF2DB01240AE0E1B201220020AB
:10275000FFF77EFBE1B201227F20FFF779FB641CCB
:102760003F2CF2DB012D2AD1434B10330FCBCDE9A7
:102770000623CDE90401404A203207CA01AB07C352
:1027800000240AE004A911F8242021012031C8B254
:1027900010230121FFF70EFC641C042CF2DB002443
:1027A0000AE001A911F824202101491CC8B2102314
:1027B0002F21FFF7FFFB641C032CF2DB2AE02E4BDA
:1027C0002C330FCBCDE90623CDE904012A4A3C3254
:1027D00007CA01AB07C300240AE004A911F82420AA
:1027E00021012031C8B210230121FFF7E3FB641C53
:1027F000042CF2DB00240AE001A911F824202101B5
:10280000491CC8B210232F21FFF7D4FB641C032CF2
:10281000F2DB00BF012E19D1174B4833D3E900205A
:10282000D3E90213CDE90613CDE9042000240AE020
:1028300004A911F8242021012031C8B21023182145
:10284000FFF7B8FB641C042CF2DB00BF00240DE092
:1028500008A911F82420C4F104010901C1F17F0184
:10286000C8B210232F21FFF7A5FB641C042CEFDB5B
:10287000FFF77EFB0CB070BD083A000810B50446A7
:1028800009480A4908600846446000218160C16027
:10289000016181610C214161FFF76EF80122044959
:1028A0000248FFF7F5F810BD003801402C04002065
:1028B0001200002030B595B0054613AB12AA09A945
:1028C000284600F03FFA044614B1204615B030BD4A
:1028D0000020149026E0224909689DF8502001EB61
:1028E000C20113AB11AA486801A900F02BFA0446F3
:1028F0000CB12046EAE709A901A800F0E1FC60B9A3
:102900009DF844009DF84810884201DD0220DDE773
:102910009DF85000124988750AE09DF85000401C4F
:10292000C0B214900E48007D9DF850108842D2DC51
:1029300000BF0B48007D9DF85010884201D1042053
:10294000C4E714A9284600F0DDFA04460CB120467D
:10295000BCE79DF85000024948750020B6E700002A
:10296000700200202DE9F0419AB09C48847D007DE2
:10297000A04202DC1AB0BDE8F0819849096801EB79
:10298000C40106AB07AA486808A900F0DBF908A94A
:1029900093A0FDF76DFC002644E09048008B0121D8
:1029A000B1400840D8B122218FA0FDF761FC30462C
:1029B00000F02EFB89492431471839468BA0FDF7DA
:1029C00057FC222188A0FDF753FC304600F020FB85
:1029D00082492431084410A941F8260018E0304605
:1029E00000F016FB7D492431085810A941F8260053
:1029F0007A48C07D30B910A850F826107CA0FDF7A9
:102A000037FC05E010A850F826107AA0FDF730FC3E
:102A10009DF81C00401EB04202D078A0FDF728FCB3
:102A2000701CC6B29DF81C008642B6DB74A0FDF790
:102A30001FFC00F03FFB6948407D0B280DD2DFE80A
:102A400000F0060D151E27323F4E5F728700634966
:102A5000096851F834008047054690E05F4A1268E3
:102A600052F8341010988847054688E05B4B1B6885
:102A700053F83420DDE91001904705467FE0574FB9
:102A80003F6857F8343010A807C89847054676E0E5
:102A9000DFF848C1DCF800C05CF8347010A80FC83B
:102AA000B84705466BE01498DFF830C10090DCF8B9
:102AB00000C05CF8347010A80FC8B84705465EE047
:102AC000DDE91401DFF814C1CDE90001DCF800C034
:102AD0005CF8347010A80FC8B84705464FE0DDE930
:102AE00014121698DFF8F4C0CDE900120290DCF859
:102AF00000C05CF8347010A80FC8B84705463EE027
:102B0000DDE91423DDE91610DFF8D0C0CDE900239C
:102B1000CDE90210DCF800C05CF8347010A80FC8D2
:102B2000B84705462BE0DDE91523DDE91710CDE9AF
:102B30000123CDE903101498DFF8A0C00090DCF861
:102B400000C05CF8347010A80FC8B847054616E0FE
:102B5000DDE91623DDE91810CDE90223CDE90410E3
:102B6000DDE91401DFF874C0CDE90001DCF800C034
:102B70005CF8347010A80FC8B847054600BF00BF06
:102B800000F056FA9DF8180001280CD11348C07DBA
:102B900020B929461BA0FDF76BFB07E029461BA0C7
:102BA000FDF766FB02E018A0FDF762FB0B4890F80A
:102BB000EC0088B10948D0F8F0000A21B0FBF1F22E
:102BC00001FB12070548D0F8F000B0FBF1F83A46D7
:102BD000414611A0FDF74CFB00BFCBE67002002080
:102BE0000D0A2573280000002563000025730000EE
:102BF000256C640030582558000000002C000000AF
:102C0000290000003D256C753B0D0A003D3058251C
:102C1000583B0D0A0000000046756E6374696F6EC4
:102C20002052756E2054696D653A25642E253164F5
:102C30006D730D0A00000000F0B503461546002034
:102C40000022002600245BE01F782C2F01D104B95C
:102C500001221F78292F01D01F780FB904B950E045
:102C6000002E3AD11F78302F02DB1F78392F17DD65
:102C70001F782D2F14D01F782B2F11D01F78612F84
:102C800002DB1F78662F0BDD1F78412F02DB1F78D8
:102C9000462F05DD1F78582F02D01F78782F0CD1D2
:102CA00002B12EE01F78612F03DB1F78203F0F70E9
:102CB00001E01F780F70491C1FE01F78222F04D1FC
:102CC00002B11EE00126012417E01F78202F14D046
:102CD0001F782C2F11D0FF2613E01F78222F00D150
:102CE000002402B10DE044B11F785C2F02D15B1CBF
:102CF000471CF8B21F780F70491C471CF8B25B1CC8
:102D0000A2E700BF00270F702E70F0BD10B504467B
:102D1000002010700BE020780870641C491C1078AB
:102D2000401C10701078984201DB012010BD207803
:102D3000202802D020780028EDD10020087000BFA4
:102D4000F4E700002DE9FF4F85B080468946002753
:102D5000002004900390012002904FF0000B00250A
:102D600044461DE02078202816D005F07F00052875
:102D700012DA0DB945F0800505F07F00042803D173
:102D800020782A2800D00EE0207805F07F010DF889
:102D90000100681CC5B202E0852D00D103E0641C6F
:102DA00020780028DED100BF8DB1002005F07F0122
:102DB0000DF8010051A1684600F082FA18B900210F
:102DC0000898017002E001210898017000254FF079
:102DD000000A444614E0641C0AF1010000F0FF0AF6
:102DE0002078202802D020782A2809D1204600F017
:102DF000D9F90646282E03D02A2E01D0CDF810A0EE
:102E00002078282802D020780028E4D1444604986D
:102E100010B10498401C04444FF0000A002654E00E
:102E2000207810B94FF0010A50E02078282803D10B
:102E300016B9781CC7B213E02078292808D13EB90A
:102E400017B1781EC7B201E04FF0010A47B93DE063
:102E50002078222804D10EB9012000E00020064687
:102E600047B9207820282FD0207889F8000009F170
:102E7000010929E020782C2804D101200290681C47
:102E8000C5B214E02078202811D0207828280ED050
:102E90004DB9BBF1050F06DA20780DF80B000BF1E8
:102EA000010000F0FF0B0298401CC0B20290012FFD
:102EB0000AD10298022807D10298401CC0B20290A1
:102EC0000398401CC0B20390641CA9E700BF03989C
:102ED000012809D100200DF80B0008A1684600F078
:102EE000EFF908B9002003900799039808700020B3
:102EF00089F80000504609B0BDE8F08F766F69642C
:102F0000000000002DE9F043B5B005460F4600244F
:102F1000002604E000213D488155701CC6B20A2EEF
:102F2000F8DB06E06D1C287818B9012035B0BDE843
:102F3000F08328782828F5D16D1C61E034AA694611
:102F40002846FFF779FE064635449DF8D00020B1AB
:102F5000012827D0FF284CD149E09DF8000000B39C
:102F600033A9684600F029F906460EB10220DDE7D4
:102F7000204600F04DF825490A31339A0A50A1F154
:102F80002400008B0121A140884320491A3908837D
:102F900004211E480155601CC4B20A2C01DD032027
:102FA000C4E726E0684600F0A7F9401C00F0FF08DF
:102FB000204600F02DF815490A3100EB0109494679
:102FC000684600F08EF911481A38018B0120A040A4
:102FD000014388B20D491A3908830C4800F804806F
:102FE000601CC4B20A2C01DD03209FE701E002202F
:102FF0009CE700BF2878292801D0287800B900E094
:103000009CE700BF3C70002090E700008A0200208F
:1030100002460020002105E0044B5B5C0344D8B26B
:103020004B1CD9B29142F7DB704700008A020020A6
:103030000E480068006900F0010040B10C48D0F86B
:10304000F0004FF6FF7108440949C1F8F000084844
:10305000D0F8F00005490968496A08440449C1F8F4
:10306000F0000846D0F8F000704700006C0800201F
:103070007002002010B5044604EBC40000EB0410FD
:103080000122C2EB800081B24FF47A70FFF7BAF8E8
:1030900001200149C87510BD7002002010B502461C
:1030A000012000E050430B1EA1F10104E1B2F9D16F
:1030B00010BD00006FF0010009490968086100BFF8
:1030C000000C07490968C86201460548C16000BF95
:1030D00000200349096848620249C1F8F0007047BE
:1030E0006C0800207002002070B51D48008800F4B4
:1030F0000040002833D01A48057800201949485567
:10310000194881681748884704461CB91649C86899
:10311000804721E0134800F0FBF80546012D00D060
:103120002C46CCB1012C06D0022C08D0032C0AD09E
:10313000042C10D10BE00DA0FDF79AF80BE00EA0C7
:10314000FDF796F807E00FA0FDF792F803E010A056
:10315000FDF78EF800BF00BF00200149088070BD58
:10316000100000206403002070020020BAAFCAFDE6
:10317000B4EDCEF3210D0A00B2CECAFDB4EDCEF30C
:10318000210D0A00B2CECAFDCCABB6E0210D0A007B
:10319000CEB4D5D2B5BDC6A5C5E4B5C4BAAFCAFDD7
:1031A000210D0A000146491C00E0491C087820282E
:1031B00001D10029F9D1087870472DE9F04F054673
:1031C0000F4600264FF00A09B3462C46002038600F
:1031D00034E02078392802DC2078302811DA287889
:1031E0002D2802D028782B2800D156B120784628E7
:1031F00002DC2078412804DA2078582817D1012EE3
:1032000015D12078412801DB4FF0100928782D28AE
:1032100003D14FF0020B6D1C0FE028782B2803D14F
:103220004FF0010B6D1C08E0701CC6B205E0207861
:1032300000B904E00120BDE8F08F641CC9E700BFBD
:103240002C46B9F1100F0FD1032E01DA0220F2E75C
:103250002078302806D16078582803D1A41CB01EED
:10326000C6B204E00320E6E70EB90420E3E71BE062
:103270000EB1701EC6B22078392806DC20783028BE
:1032800003DB2078A0F1300A02E02078A0F1370AB1
:1032900031464846FFF702FF39680AFB00103860E4
:1032A000641C207800B900E0E2E700BFBBF1020F28
:1032B00004D13868C0F10008C7F800800020BAE7E0
:1032C00002460AE010780B78984201D0012070473E
:1032D000107800B902E0521C491CF3E700BF00203F
:1032E000F5E706E002780A70027802B902E0401CB5
:1032F000491CF7E700BF70470146002005E00A7847
:1033000002B903E0421CD0B2491CF8E700BF704785
:1033100010B58CB004461E230BAA03A92046FFF764
:10332000F5FC0090009810B101200CB010BD9DF884
:103330002C00044400200B900EE040489DF82C2007
:1033400050F8221003A8FFF7BBFF00B908E09DF872
:103350002C00401CC0B20B909DF82C000728ECD329
:1033600000BF9DF82C00072863D2DFE800F00405B9
:103370003C5E6564630000BF31A0FCF779FF31A0BB
:10338000FCF776FF3FA0FCF773FF4EA0FCF770FF41
:103390005CA0FCF76DFF6BA0FCF76AFF79A0FCF75F
:1033A00067FF87A0FCF764FF8CA0FCF761FF94A087
:1033B000FCF75EFF98A0FCF75BFF9DA0FCF758FFB1
:1033C000A2A0FCF755FFA8A0FCF752FFB4A0FCF7A1
:1033D0004FFFC1A0FCF74CFFCCA0FCF749FFD8A0E1
:1033E000FCF746FFA2E216A0FCF742FFE4A0FCF7C0
:1033F0003FFF00200B900EE0F14800689DF82C2064
:1034000000EBC2004168EFA0FCF732FF9DF82C00F2
:10341000401CC0B20B90EA48007D9DF82C108842F9
:10342000EADC07A0FCF724FF80E205A0FCF720FF00
:10343000CCE179E24DE221E2F4E100003402002027
:103440000D0A00002D2D2D2D2D2D2D2D2D2D2D2D49
:103450002D2D2D2D2D2D2D2D2D2D2D2D55534D411A
:1034600052542056332E332D2D2D2D2D2D2D2D2D17
:103470002D2D2D2D2D2D2D2D2D2D2D2D2D2D2D2089
:103480000D0A00002020202055534D415254CAC738
:10349000D3C9414C49454E54454BBFAAB7A2B5C408
:1034A000D2BBB8F6C1E9C7C9B5C4B4AEBFDAB5F787
:1034B000CAD4BBA5BDBBD7E9BCFE2CCDA8B9FD20A5
:1034C0000D0A0000CBFC2CC4E3BFC9D2D4CDA8B9EF
:1034D000FDB4AEBFDAD6FACAD6B5F7D3C3B3CCD0F3
:1034E000F2C0EFC3E6B5C4C8CEBACEBAAFCAFD2C9F
:1034F000B2A2D6B4D0D02ED2F2B4CB2CC4E3BFC982
:103500000D0A0000D2D4CBE6D2E2B8FCB8C4BAAF00
:10351000CAFDB5C4CAE4C8EBB2CECAFD28D6A7B36B
:10352000D6CAFDD7D62831302F3136BDF8D6C62CB5
:10353000D6A7B3D6B8BACAFD29A1A2D7D6B7FBB4CD
:10354000AE0D0A00A1A2BAAFCAFDC8EBBFDAB5D86A
:10355000D6B7B5C8D7F7CEAAB2CECAFD292CB5A525
:10356000B8F6BAAFCAFDD7EEB6E0D6A7B3D63130BB
:10357000B8F6CAE4C8EBB2CECAFD2CB2A2D6A7B345
:10358000D60D0A00BAAFCAFDB7B5BBD8D6B5CFD4F1
:10359000CABE2ED6A7B3D6B2CECAFDCFD4CABEBD40
:1035A000F8D6C6C9E8D6C3B9A6C4DC2CD6A7B3D60C
:1035B000BDF8D6C6D7AABBBBB9A6C4DC2E0D0A007F
:1035C000BCBCCAF5D6A7B3D63A7777772E6F7065AD
:1035D0006E6564762E636F6D0D0A000055534D4184
:1035E0005254D3D037B8F6CFB5CDB3C3FCC1EE2813
:1035F000B1D8D0EBD0A1D0B4293A0D0A0000000018
:103600003F3A202020202020BBF1C8A1B0EFD6FAFD
:10361000D0C5CFA20D0A000068656C703A2020204A
:10362000BBF1C8A1B0EFD6FAD0C5CFA20D0A0000F9
:103630006C6973743A202020BFC9D3C3B5C4BAAF34
:10364000CAFDC1D0B1ED0D0A0A00000069643A203C
:1036500020202020BFC9D3C3BAAFCAFDB5C4494496
:10366000C1D0B1ED0D0A0A006865783A202020200B
:10367000B2CECAFD3136BDF8D6C6CFD4CABE2CBA3A
:10368000F3B8FABFD5B8F12BCAFDD7D6BCB4D6B4BF
:10369000D0D0BDF8D6C6D7AABBBB0D0A0A00000021
:1036A0006465633A20202020B2CECAFD3130BDF8D7
:1036B000D6C6CFD4CABE2CBAF3B8FABFD5B8F12B50
:1036C000CAFDD7D6BCB4D6B4D0D0BDF8D6C6D7AA1A
:1036D000BBBB0D0A0A00000072756E74696D653A15
:1036E000312CBFAAC6F4BAAFCAFDD4CBD0D0BCC669
:1036F000CAB13B302CB9D8B1D5BAAFCAFDD4CBD002
:10370000D0BCC6CAB13B0D0A0A000000C7EBB0B47A
:10371000D5D5B3CCD0F2B1E0D0B4B8F1CABDCAE4CB
:10372000C8EBBAAFCAFDC3FBBCB0B2CECAFDB2A2F1
:10373000D2D4BBD8B3B5BCFCBDE1CAF82E0D0A008B
:103740002D2D2D2D2D2D2D2D2D2D2D2D2D2D2D2DA9
:103750002D2D2D2D2D2D2D2D2D2D414C49454E54EA
:10376000454B2D2D2D2D2D2D2D2D2D2D2D2D2D2D53
:103770002D2D2D2D2D2D2D2D2D2D2D200D0A000023
:103780002D2D2D2D2D2D2D2D2D2D2D2D2D2D2D2D69
:103790002D2D2D2D2D2D2D2D2DBAAFCAFDC7E5B503
:1037A000A52D2D2D2D2D2D2D2D2D2D2D2D2D2D2DD1
:1037B0002D2D2D2D2D2D2D2D2D2D2D2D200D0A00B6
:1037C0007002002025730D0A0000000059A0FCF7CC
:1037D0004FFD00200B901AE0664909689DF82C20E7
:1037E00001EBC20101AB02AA486803A9FFF7AAFADC
:1037F000604800689DF82C1050F8312003A95EA0A5
:10380000FCF736FD9DF82C00401CC0B20B905948C7
:10381000007D9DF82C108842DEDCAFF2DC30FCF736
:1038200027FD83E0AFF2E830FCF722FD0BAA03A9E5
:103830002046FFF701FA9DF82C00C8B9694603A895
:10384000FFF7BBFC0B909DF82C0020B94FA000990E
:10385000FCF70EFD0EE09DF82C00042801D002209C
:1038600063E54DA0FCF704FD01204249C87501E065
:1038700002205AE547A0FCF7FBFC57E045A0FCF707
:10388000F7FC0BAA03A92046FFF7D6F99DF82C00F8
:10389000C8B9694603A8FFF790FC0B909DF82C006F
:1038A00020B942A00099FCF7E3FC0EE09DF82C0043
:1038B000042801D0022038E53FA0FCF7D9FC002005
:1038C0002C49C87501E002202FE532A0FCF7D0FC9E
:1038D0002CE030A0FCF7CCFC0BAA03A92046FFF794
:1038E000ABF99DF82C00C8B9694603A8FFF765FC41
:1038F0000B909DF82C0078B91E49009881F8EC00D7
:10390000084690F8EC0018B130A0FCF7B1FC07E0D5
:1039100035A0FCF7ADFC03E0022006E5022004E53B
:103920001CA0FCF7A5FC01E00120FEE400BF002084
:10393000FBE400002D2D2D2D2D2D2D2D2D2D2D2D8C
:103940002D2D2D2D2D2D2D2D2D2D2D2D2DBAAFCAFB
:10395000FD204944202D2D2D2D2D2D2D2D2D2D2DAE
:103960002D2D2D2D2D2D2D2D2D2D2D2D2D2D2D2D87
:10397000200D0A00700200202573206964206973FD
:103980003A0D0A3058253038580D0A004845583A43
:10399000305825580D0A00003136BDF8D6C6B2CED3
:1039A000CAFDCFD4CABE210D0A0000004445433AE7
:1039B000256C750D0A0000003130BDF8D6C6B2CEB8
:1039C000CAFDCFD4CABE210D0A00000052756E2078
:1039D00054696D652043616C63756C6174696F6EC9
:1039E000204F4E0D0A00000052756E2054696D651F
:1039F0002043616C63756C6174696F6E204F46463D
:103A00000D0A000001607047100000000700000070
:103A10000800000009000000000000000100000094
:103A20000200000003000000050000000600000086
:103A30000F00000004000000050000000600000068
:103A40000D00000002000000030000000E00000056
:103A50000A0000000B0000000C0000000D00000038
:103A6000000000000000000001020304060708092E
:103A700000000000010203043031323334353637A0
:103A800038394142434445464030580030313233A2
:103A900034353637383961626364656640307800A2
:103AA0000400000800000000000000020001000007
:103AB000100000003F0000006465630069640000BE
:103AC00072756E74696D650068656C700000000049
:103AD0006C6973740000000068657800766F696433
:103AE0002077726974655F6164647228753332206F
:103AF000616464722C7533322076616C2900000099
:103B000075333220726561645F6164647228753355
:103B10003220616464722900766F69642064656C88
:103B200061795F6D7328753136206E6D73290000E1
:103B3000766F69642064656C61795F75732875338D
:103B400032206E7573290000683B000800000020D9
:103B5000640300006C010008543D00086403002069
:103B6000A40B0000C8010008110410A24A0428098F
:103B70000202C2020202FE820122025D4040407F38
:103B800004290111280C080888C8380C0B0808E81B
:103B90000801111302011CFF4041012A7F05124058
:103BA00010101010FF109082563A127F1139559064
:103BB000802542827F013008FF49497F4949FF1033
:103BC000100808F94A48C84820D8171010F01010FB
:103BD000301040300F20403F804021160816214011
:103BE000803AE27B190162FE5A3F7B19012278205C
:103BF00010829A9693FA5252807E121212F111108C
:103C000012011EFE939293920133FE03158060F819
:103C10000738090474545556545474DD12FF180CB7
:103C200003010545857D0505050103DF29012EFEFC
:103C3000020242820971299A112B010640C9010131
:103C400011280F0404E42526342C2424242625E4FA
:103C5000046119DC590129462C404042013AFE0614
:103C60001B404050164020100C031E030C10204037
:103C7000502810100C442414040506040414244491
:103C8000140C311A41012A7F05192F212A10011F16
:103C9000111610905030DE19201F201010284442B9
:103CA0001D29011110102020FF2020F88888880885
:103CB000FF0809CA08101010301F88681F10209FC5
:103CC0004027182641F01821FF0101F9F9F1F1E12F
:103CD000E1C1C181810101FFFF80809F9F8F8F879C
:103CE00087838381818080FF204D0101F1F10449A8
:103CF000204D80808F8F0449203EF9F1E1C181057C
:103D000059403D8F8783810519201113B43A1B0850
:103D1000C8041AD0041ABC041AD8041AB8041AC069
:103D200004130D271208123B1B08050C1ADC0413A0
:103D300049261B0818101A61081A3008135002147B
:103D40002075301408B528140865291B08E90C22D1
:043D50000402DC018C
:0400000508000131BD
:00000001FF
